{
	"flow.sol": {
		"FastSort": {
			"abi": [
				{
					"inputs": [],
					"name": "fastSort",
					"outputs": [
						{
							"internalType": "uint256[]",
							"name": "",
							"type": "uint256[]"
						}
					],
					"stateMutability": "pure",
					"type": "function"
				}
			],
			"devdoc": {
				"kind": "dev",
				"methods": {},
				"version": 1
			},
			"evm": {
				"assembly": "    /* \"flow.sol\":56:1082  contract FastSort {... */\n  mstore(0x40, 0x80)\n  callvalue\n  dup1\n  iszero\n  tag_1\n  jumpi\n  0x00\n  dup1\n  revert\ntag_1:\n  pop\n  dataSize(sub_0)\n  dup1\n  dataOffset(sub_0)\n  0x00\n  codecopy\n  0x00\n  return\nstop\n\nsub_0: assembly {\n        /* \"flow.sol\":56:1082  contract FastSort {... */\n      mstore(0x40, 0x80)\n      callvalue\n      dup1\n      iszero\n      tag_1\n      jumpi\n      0x00\n      dup1\n      revert\n    tag_1:\n      pop\n      jumpi(tag_2, lt(calldatasize, 0x04))\n      shr(0xe0, calldataload(0x00))\n      dup1\n      0xa58c620e\n      eq\n      tag_3\n      jumpi\n    tag_2:\n      0x00\n      dup1\n      revert\n        /* \"flow.sol\":726:1080  function fastSort() public pure returns(uint[] memory) {... */\n    tag_3:\n      tag_4\n      tag_5\n      jump\t// in\n    tag_4:\n      mload(0x40)\n      tag_6\n      swap2\n      swap1\n      tag_7\n      jump\t// in\n    tag_6:\n      mload(0x40)\n      dup1\n      swap2\n      sub\n      swap1\n      return\n    tag_5:\n        /* \"flow.sol\":766:779  uint[] memory */\n      0x60\n        /* \"flow.sol\":791:808  uint[] memory arr */\n      0x00\n        /* \"flow.sol\":822:824  10 */\n      0x0a\n        /* \"flow.sol\":811:825  new uint[](10) */\n      0xffffffffffffffff\n      dup2\n      gt\n      iszero\n      tag_9\n      jumpi\n      tag_10\n      tag_11\n      jump\t// in\n    tag_10:\n    tag_9:\n      mload(0x40)\n      swap1\n      dup1\n      dup3\n      mstore\n      dup1\n      0x20\n      mul\n      0x20\n      add\n      dup3\n      add\n      0x40\n      mstore\n      dup1\n      iszero\n      tag_12\n      jumpi\n      dup2\n      0x20\n      add\n      0x20\n      dup3\n      mul\n      dup1\n      calldatasize\n      dup4\n      calldatacopy\n      dup1\n      dup3\n      add\n      swap2\n      pop\n      pop\n      swap1\n      pop\n    tag_12:\n      pop\n        /* \"flow.sol\":791:825  uint[] memory arr = new uint[](10) */\n      swap1\n      pop\n        /* \"flow.sol\":844:846  10 */\n      0x0a\n        /* \"flow.sol\":835:838  arr */\n      dup2\n        /* \"flow.sol\":839:840  0 */\n      0x00\n        /* \"flow.sol\":835:841  arr[0] */\n      dup2\n      mload\n      dup2\n      lt\n      tag_13\n      jumpi\n      tag_14\n      tag_15\n      jump\t// in\n    tag_14:\n    tag_13:\n      0x20\n      mul\n      0x20\n      add\n      add\n        /* \"flow.sol\":835:846  arr[0] = 10 */\n      dup2\n      dup2\n      mstore\n      pop\n      pop\n        /* \"flow.sol\":865:866  1 */\n      0x01\n        /* \"flow.sol\":856:859  arr */\n      dup2\n        /* \"flow.sol\":860:861  1 */\n      0x01\n        /* \"flow.sol\":856:862  arr[1] */\n      dup2\n      mload\n      dup2\n      lt\n      tag_16\n      jumpi\n      tag_17\n      tag_15\n      jump\t// in\n    tag_17:\n    tag_16:\n      0x20\n      mul\n      0x20\n      add\n      add\n        /* \"flow.sol\":856:866  arr[1] = 1 */\n      dup2\n      dup2\n      mstore\n      pop\n      pop\n        /* \"flow.sol\":885:886  8 */\n      0x08\n        /* \"flow.sol\":876:879  arr */\n      dup2\n        /* \"flow.sol\":880:881  2 */\n      0x02\n        /* \"flow.sol\":876:882  arr[2] */\n      dup2\n      mload\n      dup2\n      lt\n      tag_18\n      jumpi\n      tag_19\n      tag_15\n      jump\t// in\n    tag_19:\n    tag_18:\n      0x20\n      mul\n      0x20\n      add\n      add\n        /* \"flow.sol\":876:886  arr[2] = 8 */\n      dup2\n      dup2\n      mstore\n      pop\n      pop\n        /* \"flow.sol\":905:906  7 */\n      0x07\n        /* \"flow.sol\":896:899  arr */\n      dup2\n        /* \"flow.sol\":900:901  3 */\n      0x03\n        /* \"flow.sol\":896:902  arr[3] */\n      dup2\n      mload\n      dup2\n      lt\n      tag_20\n      jumpi\n      tag_21\n      tag_15\n      jump\t// in\n    tag_21:\n    tag_20:\n      0x20\n      mul\n      0x20\n      add\n      add\n        /* \"flow.sol\":896:906  arr[3] = 7 */\n      dup2\n      dup2\n      mstore\n      pop\n      pop\n        /* \"flow.sol\":925:926  6 */\n      0x06\n        /* \"flow.sol\":916:919  arr */\n      dup2\n        /* \"flow.sol\":920:921  4 */\n      0x04\n        /* \"flow.sol\":916:922  arr[4] */\n      dup2\n      mload\n      dup2\n      lt\n      tag_22\n      jumpi\n      tag_23\n      tag_15\n      jump\t// in\n    tag_23:\n    tag_22:\n      0x20\n      mul\n      0x20\n      add\n      add\n        /* \"flow.sol\":916:926  arr[4] = 6 */\n      dup2\n      dup2\n      mstore\n      pop\n      pop\n        /* \"flow.sol\":945:946  5 */\n      0x05\n        /* \"flow.sol\":936:939  arr */\n      dup2\n        /* \"flow.sol\":940:941  5 */\n      0x05\n        /* \"flow.sol\":936:942  arr[5] */\n      dup2\n      mload\n      dup2\n      lt\n      tag_24\n      jumpi\n      tag_25\n      tag_15\n      jump\t// in\n    tag_25:\n    tag_24:\n      0x20\n      mul\n      0x20\n      add\n      add\n        /* \"flow.sol\":936:946  arr[5] = 5 */\n      dup2\n      dup2\n      mstore\n      pop\n      pop\n        /* \"flow.sol\":965:966  9 */\n      0x09\n        /* \"flow.sol\":956:959  arr */\n      dup2\n        /* \"flow.sol\":960:961  6 */\n      0x06\n        /* \"flow.sol\":956:962  arr[6] */\n      dup2\n      mload\n      dup2\n      lt\n      tag_26\n      jumpi\n      tag_27\n      tag_15\n      jump\t// in\n    tag_27:\n    tag_26:\n      0x20\n      mul\n      0x20\n      add\n      add\n        /* \"flow.sol\":956:966  arr[6] = 9 */\n      dup2\n      dup2\n      mstore\n      pop\n      pop\n        /* \"flow.sol\":985:986  2 */\n      0x02\n        /* \"flow.sol\":976:979  arr */\n      dup2\n        /* \"flow.sol\":980:981  7 */\n      0x07\n        /* \"flow.sol\":976:982  arr[7] */\n      dup2\n      mload\n      dup2\n      lt\n      tag_28\n      jumpi\n      tag_29\n      tag_15\n      jump\t// in\n    tag_29:\n    tag_28:\n      0x20\n      mul\n      0x20\n      add\n      add\n        /* \"flow.sol\":976:986  arr[7] = 2 */\n      dup2\n      dup2\n      mstore\n      pop\n      pop\n        /* \"flow.sol\":1005:1006  3 */\n      0x03\n        /* \"flow.sol\":996:999  arr */\n      dup2\n        /* \"flow.sol\":1000:1001  8 */\n      0x08\n        /* \"flow.sol\":996:1002  arr[8] */\n      dup2\n      mload\n      dup2\n      lt\n      tag_30\n      jumpi\n      tag_31\n      tag_15\n      jump\t// in\n    tag_31:\n    tag_30:\n      0x20\n      mul\n      0x20\n      add\n      add\n        /* \"flow.sol\":996:1006  arr[8] = 3 */\n      dup2\n      dup2\n      mstore\n      pop\n      pop\n        /* \"flow.sol\":1025:1026  4 */\n      0x04\n        /* \"flow.sol\":1016:1019  arr */\n      dup2\n        /* \"flow.sol\":1020:1021  9 */\n      0x09\n        /* \"flow.sol\":1016:1022  arr[9] */\n      dup2\n      mload\n      dup2\n      lt\n      tag_32\n      jumpi\n      tag_33\n      tag_15\n      jump\t// in\n    tag_33:\n    tag_32:\n      0x20\n      mul\n      0x20\n      add\n      add\n        /* \"flow.sol\":1016:1026  arr[9] = 4 */\n      dup2\n      dup2\n      mstore\n      pop\n      pop\n        /* \"flow.sol\":1037:1052  sort(arr, 0, 9) */\n      tag_34\n        /* \"flow.sol\":1042:1045  arr */\n      dup2\n        /* \"flow.sol\":1047:1048  0 */\n      0x00\n        /* \"flow.sol\":1050:1051  9 */\n      0x09\n        /* \"flow.sol\":1037:1041  sort */\n      tag_35\n        /* \"flow.sol\":1037:1052  sort(arr, 0, 9) */\n      jump\t// in\n    tag_34:\n        /* \"flow.sol\":1070:1073  arr */\n      dup1\n        /* \"flow.sol\":1063:1073  return arr */\n      swap2\n      pop\n      pop\n        /* \"flow.sol\":726:1080  function fastSort() public pure returns(uint[] memory) {... */\n      swap1\n      jump\t// out\n        /* \"flow.sol\":80:720  function sort(uint[] memory arr, uint left, uint right) internal pure {... */\n    tag_35:\n        /* \"flow.sol\":171:176  right */\n      dup1\n        /* \"flow.sol\":163:167  left */\n      dup3\n        /* \"flow.sol\":163:176  left >= right */\n      lt\n        /* \"flow.sol\":160:209  if(left >= right) {... */\n      iszero\n        /* \"flow.sol\":192:199  return; */\n      tag_36\n        /* \"flow.sol\":160:209  if(left >= right) {... */\n      jumpi\n        /* \"flow.sol\":218:226  uint std */\n      0x00\n        /* \"flow.sol\":229:232  arr */\n      dup4\n        /* \"flow.sol\":233:237  left */\n      dup4\n        /* \"flow.sol\":229:238  arr[left] */\n      dup2\n      mload\n      dup2\n      lt\n      tag_38\n      jumpi\n      tag_39\n      tag_15\n      jump\t// in\n    tag_39:\n    tag_38:\n      0x20\n      mul\n      0x20\n      add\n      add\n      mload\n        /* \"flow.sol\":218:238  uint std = arr[left] */\n      swap1\n      pop\n        /* \"flow.sol\":248:258  uint start */\n      0x00\n        /* \"flow.sol\":261:265  left */\n      dup4\n        /* \"flow.sol\":248:265  uint start = left */\n      swap1\n      pop\n        /* \"flow.sol\":275:283  uint end */\n      0x00\n        /* \"flow.sol\":286:291  right */\n      dup4\n        /* \"flow.sol\":275:291  uint end = right */\n      swap1\n      pop\n        /* \"flow.sol\":301:619  while(start < end) {... */\n    tag_40:\n        /* \"flow.sol\":315:318  end */\n      dup1\n        /* \"flow.sol\":307:312  start */\n      dup3\n        /* \"flow.sol\":307:318  start < end */\n      lt\n        /* \"flow.sol\":301:619  while(start < end) {... */\n      iszero\n      tag_41\n      jumpi\n        /* \"flow.sol\":334:376  while(arr[end] > std && start < end) end-- */\n    tag_42:\n        /* \"flow.sol\":351:354  std */\n      dup3\n        /* \"flow.sol\":340:343  arr */\n      dup7\n        /* \"flow.sol\":344:347  end */\n      dup3\n        /* \"flow.sol\":340:348  arr[end] */\n      dup2\n      mload\n      dup2\n      lt\n      tag_44\n      jumpi\n      tag_45\n      tag_15\n      jump\t// in\n    tag_45:\n    tag_44:\n      0x20\n      mul\n      0x20\n      add\n      add\n      mload\n        /* \"flow.sol\":340:354  arr[end] > std */\n      gt\n        /* \"flow.sol\":340:369  arr[end] > std && start < end */\n      dup1\n      iszero\n      tag_46\n      jumpi\n      pop\n        /* \"flow.sol\":366:369  end */\n      dup1\n        /* \"flow.sol\":358:363  start */\n      dup3\n        /* \"flow.sol\":358:369  start < end */\n      lt\n        /* \"flow.sol\":340:369  arr[end] > std && start < end */\n    tag_46:\n        /* \"flow.sol\":334:376  while(arr[end] > std && start < end) end-- */\n      iszero\n      tag_43\n      jumpi\n        /* \"flow.sol\":371:376  end-- */\n      dup1\n      dup1\n      tag_47\n      swap1\n      tag_48\n      jump\t// in\n    tag_47:\n      swap2\n      pop\n      pop\n        /* \"flow.sol\":334:376  while(arr[end] > std && start < end) end-- */\n      jump(tag_42)\n    tag_43:\n        /* \"flow.sol\":402:405  end */\n      dup1\n        /* \"flow.sol\":394:399  start */\n      dup3\n        /* \"flow.sol\":394:405  start < end */\n      lt\n        /* \"flow.sol\":390:463  if (start < end) {... */\n      iszero\n      tag_49\n      jumpi\n        /* \"flow.sol\":440:443  arr */\n      dup6\n        /* \"flow.sol\":444:447  end */\n      dup2\n        /* \"flow.sol\":440:448  arr[end] */\n      dup2\n      mload\n      dup2\n      lt\n      tag_50\n      jumpi\n      tag_51\n      tag_15\n      jump\t// in\n    tag_51:\n    tag_50:\n      0x20\n      mul\n      0x20\n      add\n      add\n      mload\n        /* \"flow.sol\":425:428  arr */\n      dup7\n        /* \"flow.sol\":429:436  start++ */\n      dup4\n      dup1\n      tag_52\n      swap1\n      tag_53\n      jump\t// in\n    tag_52:\n      swap5\n      pop\n        /* \"flow.sol\":425:437  arr[start++] */\n      dup2\n      mload\n      dup2\n      lt\n      tag_54\n      jumpi\n      tag_55\n      tag_15\n      jump\t// in\n    tag_55:\n    tag_54:\n      0x20\n      mul\n      0x20\n      add\n      add\n        /* \"flow.sol\":425:448  arr[start++] = arr[end] */\n      dup2\n      dup2\n      mstore\n      pop\n      pop\n        /* \"flow.sol\":390:463  if (start < end) {... */\n    tag_49:\n        /* \"flow.sol\":476:522  while(arr[start] < std && start < end) start++ */\n    tag_56:\n        /* \"flow.sol\":495:498  std */\n      dup3\n        /* \"flow.sol\":482:485  arr */\n      dup7\n        /* \"flow.sol\":486:491  start */\n      dup4\n        /* \"flow.sol\":482:492  arr[start] */\n      dup2\n      mload\n      dup2\n      lt\n      tag_58\n      jumpi\n      tag_59\n      tag_15\n      jump\t// in\n    tag_59:\n    tag_58:\n      0x20\n      mul\n      0x20\n      add\n      add\n      mload\n        /* \"flow.sol\":482:498  arr[start] < std */\n      lt\n        /* \"flow.sol\":482:513  arr[start] < std && start < end */\n      dup1\n      iszero\n      tag_60\n      jumpi\n      pop\n        /* \"flow.sol\":510:513  end */\n      dup1\n        /* \"flow.sol\":502:507  start */\n      dup3\n        /* \"flow.sol\":502:513  start < end */\n      lt\n        /* \"flow.sol\":482:513  arr[start] < std && start < end */\n    tag_60:\n        /* \"flow.sol\":476:522  while(arr[start] < std && start < end) start++ */\n      iszero\n      tag_57\n      jumpi\n        /* \"flow.sol\":515:522  start++ */\n      dup2\n      dup1\n      tag_61\n      swap1\n      tag_53\n      jump\t// in\n    tag_61:\n      swap3\n      pop\n      pop\n        /* \"flow.sol\":476:522  while(arr[start] < std && start < end) start++ */\n      jump(tag_56)\n    tag_57:\n        /* \"flow.sol\":548:551  end */\n      dup1\n        /* \"flow.sol\":540:545  start */\n      dup3\n        /* \"flow.sol\":540:551  start < end */\n      lt\n        /* \"flow.sol\":536:609  if (start < end) {... */\n      iszero\n      tag_62\n      jumpi\n        /* \"flow.sol\":584:587  arr */\n      dup6\n        /* \"flow.sol\":588:593  start */\n      dup3\n        /* \"flow.sol\":584:594  arr[start] */\n      dup2\n      mload\n      dup2\n      lt\n      tag_63\n      jumpi\n      tag_64\n      tag_15\n      jump\t// in\n    tag_64:\n    tag_63:\n      0x20\n      mul\n      0x20\n      add\n      add\n      mload\n        /* \"flow.sol\":571:574  arr */\n      dup7\n        /* \"flow.sol\":575:580  end-- */\n      dup3\n      dup1\n      tag_65\n      swap1\n      tag_48\n      jump\t// in\n    tag_65:\n      swap4\n      pop\n        /* \"flow.sol\":571:581  arr[end--] */\n      dup2\n      mload\n      dup2\n      lt\n      tag_66\n      jumpi\n      tag_67\n      tag_15\n      jump\t// in\n    tag_67:\n    tag_66:\n      0x20\n      mul\n      0x20\n      add\n      add\n        /* \"flow.sol\":571:594  arr[end--] = arr[start] */\n      dup2\n      dup2\n      mstore\n      pop\n      pop\n        /* \"flow.sol\":536:609  if (start < end) {... */\n    tag_62:\n        /* \"flow.sol\":301:619  while(start < end) {... */\n      jump(tag_40)\n    tag_41:\n        /* \"flow.sol\":641:644  std */\n      dup3\n        /* \"flow.sol\":628:631  arr */\n      dup7\n        /* \"flow.sol\":632:637  start */\n      dup4\n        /* \"flow.sol\":628:638  arr[start] */\n      dup2\n      mload\n      dup2\n      lt\n      tag_68\n      jumpi\n      tag_69\n      tag_15\n      jump\t// in\n    tag_69:\n    tag_68:\n      0x20\n      mul\n      0x20\n      add\n      add\n        /* \"flow.sol\":628:644  arr[start] = std */\n      dup2\n      dup2\n      mstore\n      pop\n      pop\n        /* \"flow.sol\":654:676  sort(arr, left, start) */\n      tag_70\n        /* \"flow.sol\":659:662  arr */\n      dup7\n        /* \"flow.sol\":664:668  left */\n      dup7\n        /* \"flow.sol\":670:675  start */\n      dup5\n        /* \"flow.sol\":654:658  sort */\n      tag_35\n        /* \"flow.sol\":654:676  sort(arr, left, start) */\n      jump\t// in\n    tag_70:\n        /* \"flow.sol\":686:713  sort(arr, start + 1, right) */\n      tag_71\n        /* \"flow.sol\":691:694  arr */\n      dup7\n        /* \"flow.sol\":704:705  1 */\n      0x01\n        /* \"flow.sol\":696:701  start */\n      dup5\n        /* \"flow.sol\":696:705  start + 1 */\n      tag_72\n      swap2\n      swap1\n      tag_73\n      jump\t// in\n    tag_72:\n        /* \"flow.sol\":707:712  right */\n      dup7\n        /* \"flow.sol\":686:690  sort */\n      tag_35\n        /* \"flow.sol\":686:713  sort(arr, start + 1, right) */\n      jump\t// in\n    tag_71:\n        /* \"flow.sol\":150:720  {... */\n      pop\n      pop\n      pop\n        /* \"flow.sol\":80:720  function sort(uint[] memory arr, uint left, uint right) internal pure {... */\n    tag_36:\n      pop\n      pop\n      pop\n      jump\t// out\n        /* \"#utility.yul\":7:121   */\n    tag_74:\n        /* \"#utility.yul\":74:80   */\n      0x00\n        /* \"#utility.yul\":108:113   */\n      dup2\n        /* \"#utility.yul\":102:114   */\n      mload\n        /* \"#utility.yul\":92:114   */\n      swap1\n      pop\n        /* \"#utility.yul\":7:121   */\n      swap2\n      swap1\n      pop\n      jump\t// out\n        /* \"#utility.yul\":127:311   */\n    tag_75:\n        /* \"#utility.yul\":226:237   */\n      0x00\n        /* \"#utility.yul\":260:266   */\n      dup3\n        /* \"#utility.yul\":255:258   */\n      dup3\n        /* \"#utility.yul\":248:267   */\n      mstore\n        /* \"#utility.yul\":300:304   */\n      0x20\n        /* \"#utility.yul\":295:298   */\n      dup3\n        /* \"#utility.yul\":291:305   */\n      add\n        /* \"#utility.yul\":276:305   */\n      swap1\n      pop\n        /* \"#utility.yul\":127:311   */\n      swap3\n      swap2\n      pop\n      pop\n      jump\t// out\n        /* \"#utility.yul\":317:449   */\n    tag_76:\n        /* \"#utility.yul\":384:388   */\n      0x00\n        /* \"#utility.yul\":407:410   */\n      dup2\n        /* \"#utility.yul\":399:410   */\n      swap1\n      pop\n        /* \"#utility.yul\":437:441   */\n      0x20\n        /* \"#utility.yul\":432:435   */\n      dup3\n        /* \"#utility.yul\":428:442   */\n      add\n        /* \"#utility.yul\":420:442   */\n      swap1\n      pop\n        /* \"#utility.yul\":317:449   */\n      swap2\n      swap1\n      pop\n      jump\t// out\n        /* \"#utility.yul\":455:532   */\n    tag_77:\n        /* \"#utility.yul\":492:499   */\n      0x00\n        /* \"#utility.yul\":521:526   */\n      dup2\n        /* \"#utility.yul\":510:526   */\n      swap1\n      pop\n        /* \"#utility.yul\":455:532   */\n      swap2\n      swap1\n      pop\n      jump\t// out\n        /* \"#utility.yul\":538:646   */\n    tag_78:\n        /* \"#utility.yul\":615:639   */\n      tag_89\n        /* \"#utility.yul\":633:638   */\n      dup2\n        /* \"#utility.yul\":615:639   */\n      tag_77\n      jump\t// in\n    tag_89:\n        /* \"#utility.yul\":610:613   */\n      dup3\n        /* \"#utility.yul\":603:640   */\n      mstore\n        /* \"#utility.yul\":538:646   */\n      pop\n      pop\n      jump\t// out\n        /* \"#utility.yul\":652:831   */\n    tag_79:\n        /* \"#utility.yul\":721:731   */\n      0x00\n        /* \"#utility.yul\":742:788   */\n      tag_91\n        /* \"#utility.yul\":784:787   */\n      dup4\n        /* \"#utility.yul\":776:782   */\n      dup4\n        /* \"#utility.yul\":742:788   */\n      tag_78\n      jump\t// in\n    tag_91:\n        /* \"#utility.yul\":820:824   */\n      0x20\n        /* \"#utility.yul\":815:818   */\n      dup4\n        /* \"#utility.yul\":811:825   */\n      add\n        /* \"#utility.yul\":797:825   */\n      swap1\n      pop\n        /* \"#utility.yul\":652:831   */\n      swap3\n      swap2\n      pop\n      pop\n      jump\t// out\n        /* \"#utility.yul\":837:950   */\n    tag_80:\n        /* \"#utility.yul\":907:911   */\n      0x00\n        /* \"#utility.yul\":939:943   */\n      0x20\n        /* \"#utility.yul\":934:937   */\n      dup3\n        /* \"#utility.yul\":930:944   */\n      add\n        /* \"#utility.yul\":922:944   */\n      swap1\n      pop\n        /* \"#utility.yul\":837:950   */\n      swap2\n      swap1\n      pop\n      jump\t// out\n        /* \"#utility.yul\":986:1718   */\n    tag_81:\n        /* \"#utility.yul\":1105:1108   */\n      0x00\n        /* \"#utility.yul\":1134:1188   */\n      tag_94\n        /* \"#utility.yul\":1182:1187   */\n      dup3\n        /* \"#utility.yul\":1134:1188   */\n      tag_74\n      jump\t// in\n    tag_94:\n        /* \"#utility.yul\":1204:1290   */\n      tag_95\n        /* \"#utility.yul\":1283:1289   */\n      dup2\n        /* \"#utility.yul\":1278:1281   */\n      dup6\n        /* \"#utility.yul\":1204:1290   */\n      tag_75\n      jump\t// in\n    tag_95:\n        /* \"#utility.yul\":1197:1290   */\n      swap4\n      pop\n        /* \"#utility.yul\":1314:1370   */\n      tag_96\n        /* \"#utility.yul\":1364:1369   */\n      dup4\n        /* \"#utility.yul\":1314:1370   */\n      tag_76\n      jump\t// in\n    tag_96:\n        /* \"#utility.yul\":1393:1400   */\n      dup1\n        /* \"#utility.yul\":1424:1425   */\n      0x00\n        /* \"#utility.yul\":1409:1693   */\n    tag_97:\n        /* \"#utility.yul\":1434:1440   */\n      dup4\n        /* \"#utility.yul\":1431:1432   */\n      dup2\n        /* \"#utility.yul\":1428:1441   */\n      lt\n        /* \"#utility.yul\":1409:1693   */\n      iszero\n      tag_99\n      jumpi\n        /* \"#utility.yul\":1510:1516   */\n      dup2\n        /* \"#utility.yul\":1504:1517   */\n      mload\n        /* \"#utility.yul\":1537:1600   */\n      tag_100\n        /* \"#utility.yul\":1596:1599   */\n      dup9\n        /* \"#utility.yul\":1581:1594   */\n      dup3\n        /* \"#utility.yul\":1537:1600   */\n      tag_79\n      jump\t// in\n    tag_100:\n        /* \"#utility.yul\":1530:1600   */\n      swap8\n      pop\n        /* \"#utility.yul\":1623:1683   */\n      tag_101\n        /* \"#utility.yul\":1676:1682   */\n      dup4\n        /* \"#utility.yul\":1623:1683   */\n      tag_80\n      jump\t// in\n    tag_101:\n        /* \"#utility.yul\":1613:1683   */\n      swap3\n      pop\n        /* \"#utility.yul\":1469:1693   */\n      pop\n        /* \"#utility.yul\":1456:1457   */\n      0x01\n        /* \"#utility.yul\":1453:1454   */\n      dup2\n        /* \"#utility.yul\":1449:1458   */\n      add\n        /* \"#utility.yul\":1444:1458   */\n      swap1\n      pop\n        /* \"#utility.yul\":1409:1693   */\n      jump(tag_97)\n    tag_99:\n        /* \"#utility.yul\":1413:1427   */\n      pop\n        /* \"#utility.yul\":1709:1712   */\n      dup6\n        /* \"#utility.yul\":1702:1712   */\n      swap4\n      pop\n        /* \"#utility.yul\":1110:1718   */\n      pop\n      pop\n      pop\n        /* \"#utility.yul\":986:1718   */\n      swap3\n      swap2\n      pop\n      pop\n      jump\t// out\n        /* \"#utility.yul\":1724:2097   */\n    tag_7:\n        /* \"#utility.yul\":1867:1871   */\n      0x00\n        /* \"#utility.yul\":1905:1907   */\n      0x20\n        /* \"#utility.yul\":1894:1903   */\n      dup3\n        /* \"#utility.yul\":1890:1908   */\n      add\n        /* \"#utility.yul\":1882:1908   */\n      swap1\n      pop\n        /* \"#utility.yul\":1954:1963   */\n      dup2\n        /* \"#utility.yul\":1948:1952   */\n      dup2\n        /* \"#utility.yul\":1944:1964   */\n      sub\n        /* \"#utility.yul\":1940:1941   */\n      0x00\n        /* \"#utility.yul\":1929:1938   */\n      dup4\n        /* \"#utility.yul\":1925:1942   */\n      add\n        /* \"#utility.yul\":1918:1965   */\n      mstore\n        /* \"#utility.yul\":1982:2090   */\n      tag_103\n        /* \"#utility.yul\":2085:2089   */\n      dup2\n        /* \"#utility.yul\":2076:2082   */\n      dup5\n        /* \"#utility.yul\":1982:2090   */\n      tag_81\n      jump\t// in\n    tag_103:\n        /* \"#utility.yul\":1974:2090   */\n      swap1\n      pop\n        /* \"#utility.yul\":1724:2097   */\n      swap3\n      swap2\n      pop\n      pop\n      jump\t// out\n        /* \"#utility.yul\":2103:2283   */\n    tag_11:\n        /* \"#utility.yul\":2151:2228   */\n      0x4e487b7100000000000000000000000000000000000000000000000000000000\n        /* \"#utility.yul\":2148:2149   */\n      0x00\n        /* \"#utility.yul\":2141:2229   */\n      mstore\n        /* \"#utility.yul\":2248:2252   */\n      0x41\n        /* \"#utility.yul\":2245:2246   */\n      0x04\n        /* \"#utility.yul\":2238:2253   */\n      mstore\n        /* \"#utility.yul\":2272:2276   */\n      0x24\n        /* \"#utility.yul\":2269:2270   */\n      0x00\n        /* \"#utility.yul\":2262:2277   */\n      revert\n        /* \"#utility.yul\":2289:2469   */\n    tag_15:\n        /* \"#utility.yul\":2337:2414   */\n      0x4e487b7100000000000000000000000000000000000000000000000000000000\n        /* \"#utility.yul\":2334:2335   */\n      0x00\n        /* \"#utility.yul\":2327:2415   */\n      mstore\n        /* \"#utility.yul\":2434:2438   */\n      0x32\n        /* \"#utility.yul\":2431:2432   */\n      0x04\n        /* \"#utility.yul\":2424:2439   */\n      mstore\n        /* \"#utility.yul\":2458:2462   */\n      0x24\n        /* \"#utility.yul\":2455:2456   */\n      0x00\n        /* \"#utility.yul\":2448:2463   */\n      revert\n        /* \"#utility.yul\":2475:2655   */\n    tag_82:\n        /* \"#utility.yul\":2523:2600   */\n      0x4e487b7100000000000000000000000000000000000000000000000000000000\n        /* \"#utility.yul\":2520:2521   */\n      0x00\n        /* \"#utility.yul\":2513:2601   */\n      mstore\n        /* \"#utility.yul\":2620:2624   */\n      0x11\n        /* \"#utility.yul\":2617:2618   */\n      0x04\n        /* \"#utility.yul\":2610:2625   */\n      mstore\n        /* \"#utility.yul\":2644:2648   */\n      0x24\n        /* \"#utility.yul\":2641:2642   */\n      0x00\n        /* \"#utility.yul\":2634:2649   */\n      revert\n        /* \"#utility.yul\":2661:2832   */\n    tag_48:\n        /* \"#utility.yul\":2700:2703   */\n      0x00\n        /* \"#utility.yul\":2723:2747   */\n      tag_108\n        /* \"#utility.yul\":2741:2746   */\n      dup3\n        /* \"#utility.yul\":2723:2747   */\n      tag_77\n      jump\t// in\n    tag_108:\n        /* \"#utility.yul\":2714:2747   */\n      swap2\n      pop\n        /* \"#utility.yul\":2769:2773   */\n      0x00\n        /* \"#utility.yul\":2762:2767   */\n      dup3\n        /* \"#utility.yul\":2759:2774   */\n      sub\n        /* \"#utility.yul\":2756:2797   */\n      tag_109\n      jumpi\n        /* \"#utility.yul\":2777:2795   */\n      tag_110\n      tag_82\n      jump\t// in\n    tag_110:\n        /* \"#utility.yul\":2756:2797   */\n    tag_109:\n        /* \"#utility.yul\":2824:2825   */\n      0x01\n        /* \"#utility.yul\":2817:2822   */\n      dup3\n        /* \"#utility.yul\":2813:2826   */\n      sub\n        /* \"#utility.yul\":2806:2826   */\n      swap1\n      pop\n        /* \"#utility.yul\":2661:2832   */\n      swap2\n      swap1\n      pop\n      jump\t// out\n        /* \"#utility.yul\":2838:3071   */\n    tag_53:\n        /* \"#utility.yul\":2877:2880   */\n      0x00\n        /* \"#utility.yul\":2900:2924   */\n      tag_112\n        /* \"#utility.yul\":2918:2923   */\n      dup3\n        /* \"#utility.yul\":2900:2924   */\n      tag_77\n      jump\t// in\n    tag_112:\n        /* \"#utility.yul\":2891:2924   */\n      swap2\n      pop\n        /* \"#utility.yul\":2946:3012   */\n      0xffffffffffffffffffffffffffffffffffffffffffffffffffffffffffffffff\n        /* \"#utility.yul\":2939:2944   */\n      dup3\n        /* \"#utility.yul\":2936:3013   */\n      sub\n        /* \"#utility.yul\":2933:3036   */\n      tag_113\n      jumpi\n        /* \"#utility.yul\":3016:3034   */\n      tag_114\n      tag_82\n      jump\t// in\n    tag_114:\n        /* \"#utility.yul\":2933:3036   */\n    tag_113:\n        /* \"#utility.yul\":3063:3064   */\n      0x01\n        /* \"#utility.yul\":3056:3061   */\n      dup3\n        /* \"#utility.yul\":3052:3065   */\n      add\n        /* \"#utility.yul\":3045:3065   */\n      swap1\n      pop\n        /* \"#utility.yul\":2838:3071   */\n      swap2\n      swap1\n      pop\n      jump\t// out\n        /* \"#utility.yul\":3077:3268   */\n    tag_73:\n        /* \"#utility.yul\":3117:3120   */\n      0x00\n        /* \"#utility.yul\":3136:3156   */\n      tag_116\n        /* \"#utility.yul\":3154:3155   */\n      dup3\n        /* \"#utility.yul\":3136:3156   */\n      tag_77\n      jump\t// in\n    tag_116:\n        /* \"#utility.yul\":3131:3156   */\n      swap2\n      pop\n        /* \"#utility.yul\":3170:3190   */\n      tag_117\n        /* \"#utility.yul\":3188:3189   */\n      dup4\n        /* \"#utility.yul\":3170:3190   */\n      tag_77\n      jump\t// in\n    tag_117:\n        /* \"#utility.yul\":3165:3190   */\n      swap3\n      pop\n        /* \"#utility.yul\":3213:3214   */\n      dup3\n        /* \"#utility.yul\":3210:3211   */\n      dup3\n        /* \"#utility.yul\":3206:3215   */\n      add\n        /* \"#utility.yul\":3199:3215   */\n      swap1\n      pop\n        /* \"#utility.yul\":3234:3237   */\n      dup1\n        /* \"#utility.yul\":3231:3232   */\n      dup3\n        /* \"#utility.yul\":3228:3238   */\n      gt\n        /* \"#utility.yul\":3225:3261   */\n      iszero\n      tag_118\n      jumpi\n        /* \"#utility.yul\":3241:3259   */\n      tag_119\n      tag_82\n      jump\t// in\n    tag_119:\n        /* \"#utility.yul\":3225:3261   */\n    tag_118:\n        /* \"#utility.yul\":3077:3268   */\n      swap3\n      swap2\n      pop\n      pop\n      jump\t// out\n\n    auxdata: 0xa26469706673582212209f4815e0b4de7cfafca3903339d0f0488579875d227703b886b1fdbe1a29cfa864736f6c63430008120033\n}\n",
				"bytecode": {
					"linkReferences": {},
					"object": "608060405234801561001057600080fd5b50610602806100206000396000f3fe608060405234801561001057600080fd5b506004361061002b5760003560e01c8063a58c620e14610030575b600080fd5b61003861004e565b6040516100459190610478565b60405180910390f35b60606000600a67ffffffffffffffff81111561006d5761006c61049a565b5b60405190808252806020026020018201604052801561009b5781602001602082028036833780820191505090505b509050600a816000815181106100b4576100b36104c9565b5b6020026020010181815250506001816001815181106100d6576100d56104c9565b5b6020026020010181815250506008816002815181106100f8576100f76104c9565b5b60200260200101818152505060078160038151811061011a576101196104c9565b5b60200260200101818152505060068160048151811061013c5761013b6104c9565b5b60200260200101818152505060058160058151811061015e5761015d6104c9565b5b6020026020010181815250506009816006815181106101805761017f6104c9565b5b6020026020010181815250506002816007815181106101a2576101a16104c9565b5b6020026020010181815250506003816008815181106101c4576101c36104c9565b5b6020026020010181815250506004816009815181106101e6576101e56104c9565b5b6020026020010181815250506101ff8160006009610206565b8091505090565b808210156103ab576000838381518110610223576102226104c9565b5b60200260200101519050600083905060008390505b80821015610365575b82868281518110610255576102546104c9565b5b602002602001015111801561026957508082105b1561028157808061027990610527565b915050610241565b808210156102d05785818151811061029c5761029b6104c9565b5b60200260200101518683806102b090610550565b9450815181106102c3576102c26104c9565b5b6020026020010181815250505b5b828683815181106102e5576102e46104c9565b5b60200260200101511080156102f957508082105b1561031157818061030990610550565b9250506102d1565b808210156103605785828151811061032c5761032b6104c9565b5b602002602001015186828061034090610527565b935081518110610353576103526104c9565b5b6020026020010181815250505b610238565b82868381518110610379576103786104c9565b5b602002602001018181525050610390868684610206565b6103a7866001846103a19190610598565b86610206565b5050505b505050565b600081519050919050565b600082825260208201905092915050565b6000819050602082019050919050565b6000819050919050565b6103ef816103dc565b82525050565b600061040183836103e6565b60208301905092915050565b6000602082019050919050565b6000610425826103b0565b61042f81856103bb565b935061043a836103cc565b8060005b8381101561046b57815161045288826103f5565b975061045d8361040d565b92505060018101905061043e565b5085935050505092915050565b60006020820190508181036000830152610492818461041a565b905092915050565b7f4e487b7100000000000000000000000000000000000000000000000000000000600052604160045260246000fd5b7f4e487b7100000000000000000000000000000000000000000000000000000000600052603260045260246000fd5b7f4e487b7100000000000000000000000000000000000000000000000000000000600052601160045260246000fd5b6000610532826103dc565b915060008203610545576105446104f8565b5b600182039050919050565b600061055b826103dc565b91507fffffffffffffffffffffffffffffffffffffffffffffffffffffffffffffffff820361058d5761058c6104f8565b5b600182019050919050565b60006105a3826103dc565b91506105ae836103dc565b92508282019050808211156105c6576105c56104f8565b5b9291505056fea26469706673582212209f4815e0b4de7cfafca3903339d0f0488579875d227703b886b1fdbe1a29cfa864736f6c63430008120033",
					"opcodes": "PUSH1 0x80 PUSH1 0x40 MSTORE CALLVALUE DUP1 ISZERO PUSH2 0x10 JUMPI PUSH1 0x0 DUP1 REVERT JUMPDEST POP PUSH2 0x602 DUP1 PUSH2 0x20 PUSH1 0x0 CODECOPY PUSH1 0x0 RETURN INVALID PUSH1 0x80 PUSH1 0x40 MSTORE CALLVALUE DUP1 ISZERO PUSH2 0x10 JUMPI PUSH1 0x0 DUP1 REVERT JUMPDEST POP PUSH1 0x4 CALLDATASIZE LT PUSH2 0x2B JUMPI PUSH1 0x0 CALLDATALOAD PUSH1 0xE0 SHR DUP1 PUSH4 0xA58C620E EQ PUSH2 0x30 JUMPI JUMPDEST PUSH1 0x0 DUP1 REVERT JUMPDEST PUSH2 0x38 PUSH2 0x4E JUMP JUMPDEST PUSH1 0x40 MLOAD PUSH2 0x45 SWAP2 SWAP1 PUSH2 0x478 JUMP JUMPDEST PUSH1 0x40 MLOAD DUP1 SWAP2 SUB SWAP1 RETURN JUMPDEST PUSH1 0x60 PUSH1 0x0 PUSH1 0xA PUSH8 0xFFFFFFFFFFFFFFFF DUP2 GT ISZERO PUSH2 0x6D JUMPI PUSH2 0x6C PUSH2 0x49A JUMP JUMPDEST JUMPDEST PUSH1 0x40 MLOAD SWAP1 DUP1 DUP3 MSTORE DUP1 PUSH1 0x20 MUL PUSH1 0x20 ADD DUP3 ADD PUSH1 0x40 MSTORE DUP1 ISZERO PUSH2 0x9B JUMPI DUP2 PUSH1 0x20 ADD PUSH1 0x20 DUP3 MUL DUP1 CALLDATASIZE DUP4 CALLDATACOPY DUP1 DUP3 ADD SWAP2 POP POP SWAP1 POP JUMPDEST POP SWAP1 POP PUSH1 0xA DUP2 PUSH1 0x0 DUP2 MLOAD DUP2 LT PUSH2 0xB4 JUMPI PUSH2 0xB3 PUSH2 0x4C9 JUMP JUMPDEST JUMPDEST PUSH1 0x20 MUL PUSH1 0x20 ADD ADD DUP2 DUP2 MSTORE POP POP PUSH1 0x1 DUP2 PUSH1 0x1 DUP2 MLOAD DUP2 LT PUSH2 0xD6 JUMPI PUSH2 0xD5 PUSH2 0x4C9 JUMP JUMPDEST JUMPDEST PUSH1 0x20 MUL PUSH1 0x20 ADD ADD DUP2 DUP2 MSTORE POP POP PUSH1 0x8 DUP2 PUSH1 0x2 DUP2 MLOAD DUP2 LT PUSH2 0xF8 JUMPI PUSH2 0xF7 PUSH2 0x4C9 JUMP JUMPDEST JUMPDEST PUSH1 0x20 MUL PUSH1 0x20 ADD ADD DUP2 DUP2 MSTORE POP POP PUSH1 0x7 DUP2 PUSH1 0x3 DUP2 MLOAD DUP2 LT PUSH2 0x11A JUMPI PUSH2 0x119 PUSH2 0x4C9 JUMP JUMPDEST JUMPDEST PUSH1 0x20 MUL PUSH1 0x20 ADD ADD DUP2 DUP2 MSTORE POP POP PUSH1 0x6 DUP2 PUSH1 0x4 DUP2 MLOAD DUP2 LT PUSH2 0x13C JUMPI PUSH2 0x13B PUSH2 0x4C9 JUMP JUMPDEST JUMPDEST PUSH1 0x20 MUL PUSH1 0x20 ADD ADD DUP2 DUP2 MSTORE POP POP PUSH1 0x5 DUP2 PUSH1 0x5 DUP2 MLOAD DUP2 LT PUSH2 0x15E JUMPI PUSH2 0x15D PUSH2 0x4C9 JUMP JUMPDEST JUMPDEST PUSH1 0x20 MUL PUSH1 0x20 ADD ADD DUP2 DUP2 MSTORE POP POP PUSH1 0x9 DUP2 PUSH1 0x6 DUP2 MLOAD DUP2 LT PUSH2 0x180 JUMPI PUSH2 0x17F PUSH2 0x4C9 JUMP JUMPDEST JUMPDEST PUSH1 0x20 MUL PUSH1 0x20 ADD ADD DUP2 DUP2 MSTORE POP POP PUSH1 0x2 DUP2 PUSH1 0x7 DUP2 MLOAD DUP2 LT PUSH2 0x1A2 JUMPI PUSH2 0x1A1 PUSH2 0x4C9 JUMP JUMPDEST JUMPDEST PUSH1 0x20 MUL PUSH1 0x20 ADD ADD DUP2 DUP2 MSTORE POP POP PUSH1 0x3 DUP2 PUSH1 0x8 DUP2 MLOAD DUP2 LT PUSH2 0x1C4 JUMPI PUSH2 0x1C3 PUSH2 0x4C9 JUMP JUMPDEST JUMPDEST PUSH1 0x20 MUL PUSH1 0x20 ADD ADD DUP2 DUP2 MSTORE POP POP PUSH1 0x4 DUP2 PUSH1 0x9 DUP2 MLOAD DUP2 LT PUSH2 0x1E6 JUMPI PUSH2 0x1E5 PUSH2 0x4C9 JUMP JUMPDEST JUMPDEST PUSH1 0x20 MUL PUSH1 0x20 ADD ADD DUP2 DUP2 MSTORE POP POP PUSH2 0x1FF DUP2 PUSH1 0x0 PUSH1 0x9 PUSH2 0x206 JUMP JUMPDEST DUP1 SWAP2 POP POP SWAP1 JUMP JUMPDEST DUP1 DUP3 LT ISZERO PUSH2 0x3AB JUMPI PUSH1 0x0 DUP4 DUP4 DUP2 MLOAD DUP2 LT PUSH2 0x223 JUMPI PUSH2 0x222 PUSH2 0x4C9 JUMP JUMPDEST JUMPDEST PUSH1 0x20 MUL PUSH1 0x20 ADD ADD MLOAD SWAP1 POP PUSH1 0x0 DUP4 SWAP1 POP PUSH1 0x0 DUP4 SWAP1 POP JUMPDEST DUP1 DUP3 LT ISZERO PUSH2 0x365 JUMPI JUMPDEST DUP3 DUP7 DUP3 DUP2 MLOAD DUP2 LT PUSH2 0x255 JUMPI PUSH2 0x254 PUSH2 0x4C9 JUMP JUMPDEST JUMPDEST PUSH1 0x20 MUL PUSH1 0x20 ADD ADD MLOAD GT DUP1 ISZERO PUSH2 0x269 JUMPI POP DUP1 DUP3 LT JUMPDEST ISZERO PUSH2 0x281 JUMPI DUP1 DUP1 PUSH2 0x279 SWAP1 PUSH2 0x527 JUMP JUMPDEST SWAP2 POP POP PUSH2 0x241 JUMP JUMPDEST DUP1 DUP3 LT ISZERO PUSH2 0x2D0 JUMPI DUP6 DUP2 DUP2 MLOAD DUP2 LT PUSH2 0x29C JUMPI PUSH2 0x29B PUSH2 0x4C9 JUMP JUMPDEST JUMPDEST PUSH1 0x20 MUL PUSH1 0x20 ADD ADD MLOAD DUP7 DUP4 DUP1 PUSH2 0x2B0 SWAP1 PUSH2 0x550 JUMP JUMPDEST SWAP5 POP DUP2 MLOAD DUP2 LT PUSH2 0x2C3 JUMPI PUSH2 0x2C2 PUSH2 0x4C9 JUMP JUMPDEST JUMPDEST PUSH1 0x20 MUL PUSH1 0x20 ADD ADD DUP2 DUP2 MSTORE POP POP JUMPDEST JUMPDEST DUP3 DUP7 DUP4 DUP2 MLOAD DUP2 LT PUSH2 0x2E5 JUMPI PUSH2 0x2E4 PUSH2 0x4C9 JUMP JUMPDEST JUMPDEST PUSH1 0x20 MUL PUSH1 0x20 ADD ADD MLOAD LT DUP1 ISZERO PUSH2 0x2F9 JUMPI POP DUP1 DUP3 LT JUMPDEST ISZERO PUSH2 0x311 JUMPI DUP2 DUP1 PUSH2 0x309 SWAP1 PUSH2 0x550 JUMP JUMPDEST SWAP3 POP POP PUSH2 0x2D1 JUMP JUMPDEST DUP1 DUP3 LT ISZERO PUSH2 0x360 JUMPI DUP6 DUP3 DUP2 MLOAD DUP2 LT PUSH2 0x32C JUMPI PUSH2 0x32B PUSH2 0x4C9 JUMP JUMPDEST JUMPDEST PUSH1 0x20 MUL PUSH1 0x20 ADD ADD MLOAD DUP7 DUP3 DUP1 PUSH2 0x340 SWAP1 PUSH2 0x527 JUMP JUMPDEST SWAP4 POP DUP2 MLOAD DUP2 LT PUSH2 0x353 JUMPI PUSH2 0x352 PUSH2 0x4C9 JUMP JUMPDEST JUMPDEST PUSH1 0x20 MUL PUSH1 0x20 ADD ADD DUP2 DUP2 MSTORE POP POP JUMPDEST PUSH2 0x238 JUMP JUMPDEST DUP3 DUP7 DUP4 DUP2 MLOAD DUP2 LT PUSH2 0x379 JUMPI PUSH2 0x378 PUSH2 0x4C9 JUMP JUMPDEST JUMPDEST PUSH1 0x20 MUL PUSH1 0x20 ADD ADD DUP2 DUP2 MSTORE POP POP PUSH2 0x390 DUP7 DUP7 DUP5 PUSH2 0x206 JUMP JUMPDEST PUSH2 0x3A7 DUP7 PUSH1 0x1 DUP5 PUSH2 0x3A1 SWAP2 SWAP1 PUSH2 0x598 JUMP JUMPDEST DUP7 PUSH2 0x206 JUMP JUMPDEST POP POP POP JUMPDEST POP POP POP JUMP JUMPDEST PUSH1 0x0 DUP2 MLOAD SWAP1 POP SWAP2 SWAP1 POP JUMP JUMPDEST PUSH1 0x0 DUP3 DUP3 MSTORE PUSH1 0x20 DUP3 ADD SWAP1 POP SWAP3 SWAP2 POP POP JUMP JUMPDEST PUSH1 0x0 DUP2 SWAP1 POP PUSH1 0x20 DUP3 ADD SWAP1 POP SWAP2 SWAP1 POP JUMP JUMPDEST PUSH1 0x0 DUP2 SWAP1 POP SWAP2 SWAP1 POP JUMP JUMPDEST PUSH2 0x3EF DUP2 PUSH2 0x3DC JUMP JUMPDEST DUP3 MSTORE POP POP JUMP JUMPDEST PUSH1 0x0 PUSH2 0x401 DUP4 DUP4 PUSH2 0x3E6 JUMP JUMPDEST PUSH1 0x20 DUP4 ADD SWAP1 POP SWAP3 SWAP2 POP POP JUMP JUMPDEST PUSH1 0x0 PUSH1 0x20 DUP3 ADD SWAP1 POP SWAP2 SWAP1 POP JUMP JUMPDEST PUSH1 0x0 PUSH2 0x425 DUP3 PUSH2 0x3B0 JUMP JUMPDEST PUSH2 0x42F DUP2 DUP6 PUSH2 0x3BB JUMP JUMPDEST SWAP4 POP PUSH2 0x43A DUP4 PUSH2 0x3CC JUMP JUMPDEST DUP1 PUSH1 0x0 JUMPDEST DUP4 DUP2 LT ISZERO PUSH2 0x46B JUMPI DUP2 MLOAD PUSH2 0x452 DUP9 DUP3 PUSH2 0x3F5 JUMP JUMPDEST SWAP8 POP PUSH2 0x45D DUP4 PUSH2 0x40D JUMP JUMPDEST SWAP3 POP POP PUSH1 0x1 DUP2 ADD SWAP1 POP PUSH2 0x43E JUMP JUMPDEST POP DUP6 SWAP4 POP POP POP POP SWAP3 SWAP2 POP POP JUMP JUMPDEST PUSH1 0x0 PUSH1 0x20 DUP3 ADD SWAP1 POP DUP2 DUP2 SUB PUSH1 0x0 DUP4 ADD MSTORE PUSH2 0x492 DUP2 DUP5 PUSH2 0x41A JUMP JUMPDEST SWAP1 POP SWAP3 SWAP2 POP POP JUMP JUMPDEST PUSH32 0x4E487B7100000000000000000000000000000000000000000000000000000000 PUSH1 0x0 MSTORE PUSH1 0x41 PUSH1 0x4 MSTORE PUSH1 0x24 PUSH1 0x0 REVERT JUMPDEST PUSH32 0x4E487B7100000000000000000000000000000000000000000000000000000000 PUSH1 0x0 MSTORE PUSH1 0x32 PUSH1 0x4 MSTORE PUSH1 0x24 PUSH1 0x0 REVERT JUMPDEST PUSH32 0x4E487B7100000000000000000000000000000000000000000000000000000000 PUSH1 0x0 MSTORE PUSH1 0x11 PUSH1 0x4 MSTORE PUSH1 0x24 PUSH1 0x0 REVERT JUMPDEST PUSH1 0x0 PUSH2 0x532 DUP3 PUSH2 0x3DC JUMP JUMPDEST SWAP2 POP PUSH1 0x0 DUP3 SUB PUSH2 0x545 JUMPI PUSH2 0x544 PUSH2 0x4F8 JUMP JUMPDEST JUMPDEST PUSH1 0x1 DUP3 SUB SWAP1 POP SWAP2 SWAP1 POP JUMP JUMPDEST PUSH1 0x0 PUSH2 0x55B DUP3 PUSH2 0x3DC JUMP JUMPDEST SWAP2 POP PUSH32 0xFFFFFFFFFFFFFFFFFFFFFFFFFFFFFFFFFFFFFFFFFFFFFFFFFFFFFFFFFFFFFFFF DUP3 SUB PUSH2 0x58D JUMPI PUSH2 0x58C PUSH2 0x4F8 JUMP JUMPDEST JUMPDEST PUSH1 0x1 DUP3 ADD SWAP1 POP SWAP2 SWAP1 POP JUMP JUMPDEST PUSH1 0x0 PUSH2 0x5A3 DUP3 PUSH2 0x3DC JUMP JUMPDEST SWAP2 POP PUSH2 0x5AE DUP4 PUSH2 0x3DC JUMP JUMPDEST SWAP3 POP DUP3 DUP3 ADD SWAP1 POP DUP1 DUP3 GT ISZERO PUSH2 0x5C6 JUMPI PUSH2 0x5C5 PUSH2 0x4F8 JUMP JUMPDEST JUMPDEST SWAP3 SWAP2 POP POP JUMP INVALID LOG2 PUSH5 0x6970667358 0x22 SLT KECCAK256 SWAP16 BASEFEE ISZERO 0xE0 0xB4 0xDE PUSH29 0xFAFCA3903339D0F0488579875D227703B886B1FDBE1A29CFA864736F6C PUSH4 0x43000812 STOP CALLER "
				},
				"gasEstimates": {
					"creation": {
						"codeDepositCost": "307600",
						"executionCost": "349",
						"totalCost": "307949"
					},
					"external": {
						"fastSort()": "infinite"
					},
					"internal": {
						"sort(uint256[] memory,uint256,uint256)": "infinite"
					}
				},
				"methodIdentifiers": {
					"fastSort()": "a58c620e"
				}
			},
			"storageLayout": {
				"storage": [],
				"types": null
			},
			"userdoc": {
				"kind": "user",
				"methods": {},
				"version": 1
			}
		}
	}
}