{
	"function.sol": {
		"FunctionContract": {
			"abi": [
				{
					"inputs": [
						{
							"internalType": "uint256",
							"name": "count",
							"type": "uint256"
						}
					],
					"name": "BuyNumber",
					"outputs": [
						{
							"internalType": "uint256",
							"name": "balance",
							"type": "uint256"
						}
					],
					"stateMutability": "payable",
					"type": "function"
				},
				{
					"inputs": [],
					"name": "CostNumber",
					"outputs": [],
					"stateMutability": "nonpayable",
					"type": "function"
				},
				{
					"inputs": [],
					"name": "GetNumber",
					"outputs": [
						{
							"internalType": "uint256",
							"name": "new_number",
							"type": "uint256"
						}
					],
					"stateMutability": "view",
					"type": "function"
				},
				{
					"inputs": [],
					"name": "_number",
					"outputs": [
						{
							"internalType": "uint256",
							"name": "",
							"type": "uint256"
						}
					],
					"stateMutability": "view",
					"type": "function"
				},
				{
					"inputs": [],
					"name": "test",
					"outputs": [],
					"stateMutability": "pure",
					"type": "function"
				},
				{
					"inputs": [],
					"name": "testMultipleReturn",
					"outputs": [
						{
							"internalType": "uint256",
							"name": "",
							"type": "uint256"
						},
						{
							"internalType": "uint256[3]",
							"name": "",
							"type": "uint256[3]"
						},
						{
							"internalType": "string",
							"name": "",
							"type": "string"
						}
					],
					"stateMutability": "pure",
					"type": "function"
				},
				{
					"inputs": [],
					"name": "testReturn",
					"outputs": [
						{
							"internalType": "uint256",
							"name": "",
							"type": "uint256"
						}
					],
					"stateMutability": "pure",
					"type": "function"
				}
			],
			"devdoc": {
				"kind": "dev",
				"methods": {},
				"version": 1
			},
			"evm": {
				"assembly": "    /* \"function.sol\":56:1377  contract FunctionContract {... */\n  mstore(0x40, 0x80)\n    /* \"function.sol\":113:114  0 */\n  0x00\n    /* \"function.sol\":88:114  uint256 public _number = 0 */\n  dup1\n  sstore\n    /* \"function.sol\":56:1377  contract FunctionContract {... */\n  callvalue\n  dup1\n  iszero\n  tag_1\n  jumpi\n  0x00\n  dup1\n  revert\ntag_1:\n  pop\n  dataSize(sub_0)\n  dup1\n  dataOffset(sub_0)\n  0x00\n  codecopy\n  0x00\n  return\nstop\n\nsub_0: assembly {\n        /* \"function.sol\":56:1377  contract FunctionContract {... */\n      mstore(0x40, 0x80)\n      jumpi(tag_1, lt(calldatasize, 0x04))\n      shr(0xe0, calldataload(0x00))\n      dup1\n      0x8d79e4fa\n      gt\n      tag_9\n      jumpi\n      dup1\n      0x8d79e4fa\n      eq\n      tag_5\n      jumpi\n      dup1\n      0xe13a7716\n      eq\n      tag_6\n      jumpi\n      dup1\n      0xf8a8fd6d\n      eq\n      tag_7\n      jumpi\n      dup1\n      0xf9bd55cc\n      eq\n      tag_8\n      jumpi\n      jump(tag_1)\n    tag_9:\n      dup1\n      0x06a5312b\n      eq\n      tag_2\n      jumpi\n      dup1\n      0x5e7a6a82\n      eq\n      tag_3\n      jumpi\n      dup1\n      0x6bfba1d4\n      eq\n      tag_4\n      jumpi\n    tag_1:\n      0x00\n      dup1\n      revert\n        /* \"function.sol\":614:719  function GetNumber() external view returns (uint256 new_number) {... */\n    tag_2:\n      callvalue\n      dup1\n      iszero\n      tag_10\n      jumpi\n      0x00\n      dup1\n      revert\n    tag_10:\n      pop\n      tag_11\n      tag_12\n      jump\t// in\n    tag_11:\n      mload(0x40)\n      tag_13\n      swap2\n      swap1\n      tag_14\n      jump\t// in\n    tag_13:\n      mload(0x40)\n      dup1\n      swap2\n      sub\n      swap1\n      return\n        /* \"function.sol\":725:785  function CostNumber() external {... */\n    tag_3:\n      callvalue\n      dup1\n      iszero\n      tag_15\n      jumpi\n      0x00\n      dup1\n      revert\n    tag_15:\n      pop\n      tag_16\n      tag_17\n      jump\t// in\n    tag_16:\n      stop\n        /* \"function.sol\":1075:1219  function testMultipleReturn() public pure returns(uint256, uint256[3] memory, string memory) {... */\n    tag_4:\n      callvalue\n      dup1\n      iszero\n      tag_18\n      jumpi\n      0x00\n      dup1\n      revert\n    tag_18:\n      pop\n      tag_19\n      tag_20\n      jump\t// in\n    tag_19:\n      mload(0x40)\n      tag_21\n      swap4\n      swap3\n      swap2\n      swap1\n      tag_22\n      jump\t// in\n    tag_21:\n      mload(0x40)\n      dup1\n      swap2\n      sub\n      swap1\n      return\n        /* \"function.sol\":791:986  function BuyNumber(uint256 count) external payable returns (uint256 balance) {... */\n    tag_5:\n      tag_23\n      0x04\n      dup1\n      calldatasize\n      sub\n      dup2\n      add\n      swap1\n      tag_24\n      swap2\n      swap1\n      tag_25\n      jump\t// in\n    tag_24:\n      tag_26\n      jump\t// in\n    tag_23:\n      mload(0x40)\n      tag_27\n      swap2\n      swap1\n      tag_14\n      jump\t// in\n    tag_27:\n      mload(0x40)\n      dup1\n      swap2\n      sub\n      swap1\n      return\n        /* \"function.sol\":992:1069  function testReturn() public pure returns (uint256) {... */\n    tag_6:\n      callvalue\n      dup1\n      iszero\n      tag_28\n      jumpi\n      0x00\n      dup1\n      revert\n    tag_28:\n      pop\n      tag_29\n      tag_30\n      jump\t// in\n    tag_29:\n      mload(0x40)\n      tag_31\n      swap2\n      swap1\n      tag_14\n      jump\t// in\n    tag_31:\n      mload(0x40)\n      dup1\n      swap2\n      sub\n      swap1\n      return\n        /* \"function.sol\":1225:1375  function test() public pure {... */\n    tag_7:\n      callvalue\n      dup1\n      iszero\n      tag_32\n      jumpi\n      0x00\n      dup1\n      revert\n    tag_32:\n      pop\n      tag_33\n      tag_34\n      jump\t// in\n    tag_33:\n      stop\n        /* \"function.sol\":88:114  uint256 public _number = 0 */\n    tag_8:\n      callvalue\n      dup1\n      iszero\n      tag_35\n      jumpi\n      0x00\n      dup1\n      revert\n    tag_35:\n      pop\n      tag_36\n      tag_37\n      jump\t// in\n    tag_36:\n      mload(0x40)\n      tag_38\n      swap2\n      swap1\n      tag_14\n      jump\t// in\n    tag_38:\n      mload(0x40)\n      dup1\n      swap2\n      sub\n      swap1\n      return\n        /* \"function.sol\":614:719  function GetNumber() external view returns (uint256 new_number) {... */\n    tag_12:\n        /* \"function.sol\":658:676  uint256 new_number */\n      0x00\n        /* \"function.sol\":701:712  getNumber() */\n      tag_40\n        /* \"function.sol\":701:710  getNumber */\n      tag_41\n        /* \"function.sol\":701:712  getNumber() */\n      jump\t// in\n    tag_40:\n        /* \"function.sol\":688:712  new_number = getNumber() */\n      swap1\n      pop\n        /* \"function.sol\":614:719  function GetNumber() external view returns (uint256 new_number) {... */\n      swap1\n      jump\t// out\n        /* \"function.sol\":725:785  function CostNumber() external {... */\n    tag_17:\n        /* \"function.sol\":766:778  costNumber() */\n      tag_43\n        /* \"function.sol\":766:776  costNumber */\n      tag_44\n        /* \"function.sol\":766:778  costNumber() */\n      jump\t// in\n    tag_43:\n        /* \"function.sol\":725:785  function CostNumber() external {... */\n      jump\t// out\n        /* \"function.sol\":1075:1219  function testMultipleReturn() public pure returns(uint256, uint256[3] memory, string memory) {... */\n    tag_20:\n        /* \"function.sol\":1125:1132  uint256 */\n      0x00\n        /* \"function.sol\":1134:1151  uint256[3] memory */\n      tag_45\n      tag_46\n      jump\t// in\n    tag_45:\n        /* \"function.sol\":1153:1166  string memory */\n      0x60\n        /* \"function.sol\":1186:1187  2 */\n      0x02\n        /* \"function.sol\":1178:1212  return (2, [uint256(2),2,2], \"ww\") */\n      mload(0x40)\n      dup1\n      0x60\n      add\n      0x40\n      mstore\n      dup1\n        /* \"function.sol\":1198:1199  2 */\n      0x02\n        /* \"function.sol\":1178:1212  return (2, [uint256(2),2,2], \"ww\") */\n      dup2\n      mstore\n      0x20\n      add\n        /* \"function.sol\":1201:1202  2 */\n      0x02\n        /* \"function.sol\":1178:1212  return (2, [uint256(2),2,2], \"ww\") */\n      dup2\n      mstore\n      0x20\n      add\n        /* \"function.sol\":1203:1204  2 */\n      0x02\n        /* \"function.sol\":1178:1212  return (2, [uint256(2),2,2], \"ww\") */\n      dup2\n      mstore\n      pop\n      mload(0x40)\n      dup1\n      0x40\n      add\n      0x40\n      mstore\n      dup1\n      0x02\n      dup2\n      mstore\n      0x20\n      add\n      0x7777000000000000000000000000000000000000000000000000000000000000\n      dup2\n      mstore\n      pop\n      swap3\n      pop\n      swap3\n      pop\n      swap3\n      pop\n        /* \"function.sol\":1075:1219  function testMultipleReturn() public pure returns(uint256, uint256[3] memory, string memory) {... */\n      swap1\n      swap2\n      swap3\n      jump\t// out\n        /* \"function.sol\":791:986  function BuyNumber(uint256 count) external payable returns (uint256 balance) {... */\n    tag_26:\n        /* \"function.sol\":851:866  uint256 balance */\n      0x00\n        /* \"function.sol\":878:919  setNumber(utilsAddNumber(_number, count)) */\n      tag_49\n        /* \"function.sol\":888:918  utilsAddNumber(_number, count) */\n      tag_50\n        /* \"function.sol\":903:910  _number */\n      sload(0x00)\n        /* \"function.sol\":912:917  count */\n      dup5\n        /* \"function.sol\":888:902  utilsAddNumber */\n      tag_51\n        /* \"function.sol\":888:918  utilsAddNumber(_number, count) */\n      jump\t// in\n    tag_50:\n        /* \"function.sol\":878:887  setNumber */\n      tag_52\n        /* \"function.sol\":878:919  setNumber(utilsAddNumber(_number, count)) */\n      jump\t// in\n    tag_49:\n        /* \"function.sol\":939:979  utilsAddNumber(0, address(this).balance) */\n      tag_53\n        /* \"function.sol\":954:955  0 */\n      0x00\n        /* \"function.sol\":957:978  address(this).balance */\n      selfbalance\n        /* \"function.sol\":939:953  utilsAddNumber */\n      tag_51\n        /* \"function.sol\":939:979  utilsAddNumber(0, address(this).balance) */\n      jump\t// in\n    tag_53:\n        /* \"function.sol\":929:979  balance = utilsAddNumber(0, address(this).balance) */\n      swap1\n      pop\n        /* \"function.sol\":791:986  function BuyNumber(uint256 count) external payable returns (uint256 balance) {... */\n      swap2\n      swap1\n      pop\n      jump\t// out\n        /* \"function.sol\":992:1069  function testReturn() public pure returns (uint256) {... */\n    tag_30:\n        /* \"function.sol\":1035:1042  uint256 */\n      0x00\n        /* \"function.sol\":1061:1062  1 */\n      0x01\n        /* \"function.sol\":1054:1062  return 1 */\n      swap1\n      pop\n        /* \"function.sol\":992:1069  function testReturn() public pure returns (uint256) {... */\n      swap1\n      jump\t// out\n        /* \"function.sol\":1225:1375  function test() public pure {... */\n    tag_34:\n        /* \"function.sol\":1263:1272  uint256 a */\n      0x00\n        /* \"function.sol\":1282:1301  uint256[3] memory b */\n      tag_56\n      tag_46\n      jump\t// in\n    tag_56:\n        /* \"function.sol\":1311:1326  string memory c */\n      0x60\n        /* \"function.sol\":1348:1368  testMultipleReturn() */\n      tag_57\n        /* \"function.sol\":1348:1366  testMultipleReturn */\n      tag_20\n        /* \"function.sol\":1348:1368  testMultipleReturn() */\n      jump\t// in\n    tag_57:\n        /* \"function.sol\":1336:1368  (a, b, c) = testMultipleReturn() */\n      dup1\n      swap4\n      pop\n      dup2\n      swap5\n      pop\n      dup3\n      swap6\n      pop\n      pop\n      pop\n      pop\n        /* \"function.sol\":1253:1375  {... */\n      pop\n      pop\n      pop\n        /* \"function.sol\":1225:1375  function test() public pure {... */\n      jump\t// out\n        /* \"function.sol\":88:114  uint256 public _number = 0 */\n    tag_37:\n      sload(0x00)\n      dup2\n      jump\t// out\n        /* \"function.sol\":507:608  function getNumber() internal view returns (uint256 num_number) {... */\n    tag_41:\n        /* \"function.sol\":551:569  uint256 num_number */\n      0x00\n        /* \"function.sol\":594:601  _number */\n      dup1\n      sload\n        /* \"function.sol\":581:601  num_number = _number */\n      swap1\n      pop\n        /* \"function.sol\":507:608  function getNumber() internal view returns (uint256 num_number) {... */\n      swap1\n      jump\t// out\n        /* \"function.sol\":349:418  function costNumber() internal {... */\n    tag_44:\n        /* \"function.sol\":410:411  1 */\n      0x01\n        /* \"function.sol\":400:407  _number */\n      sload(0x00)\n        /* \"function.sol\":400:411  _number - 1 */\n      tag_60\n      swap2\n      swap1\n      tag_61\n      jump\t// in\n    tag_60:\n        /* \"function.sol\":390:397  _number */\n      0x00\n        /* \"function.sol\":390:411  _number = _number - 1 */\n      dup2\n      swap1\n      sstore\n      pop\n        /* \"function.sol\":349:418  function costNumber() internal {... */\n      jump\t// out\n        /* \"function.sol\":121:269  function utilsAddNumber(uint256 number, uint256 addition) internal pure returns (uint256 num_number) {... */\n    tag_51:\n        /* \"function.sol\":202:220  uint256 num_number */\n      0x00\n        /* \"function.sol\":254:262  addition */\n      dup2\n        /* \"function.sol\":245:251  number */\n      dup4\n        /* \"function.sol\":245:262  number + addition */\n      tag_63\n      swap2\n      swap1\n      tag_64\n      jump\t// in\n    tag_63:\n        /* \"function.sol\":232:262  num_number = number + addition */\n      swap1\n      pop\n        /* \"function.sol\":121:269  function utilsAddNumber(uint256 number, uint256 addition) internal pure returns (uint256 num_number) {... */\n      swap3\n      swap2\n      pop\n      pop\n      jump\t// out\n        /* \"function.sol\":424:501  function setNumber(uint256 number) internal {... */\n    tag_52:\n        /* \"function.sol\":488:494  number */\n      dup1\n        /* \"function.sol\":478:485  _number */\n      0x00\n        /* \"function.sol\":478:494  _number = number */\n      dup2\n      swap1\n      sstore\n      pop\n        /* \"function.sol\":424:501  function setNumber(uint256 number) internal {... */\n      pop\n      jump\t// out\n    tag_46:\n      mload(0x40)\n      dup1\n      0x60\n      add\n      0x40\n      mstore\n      dup1\n      0x03\n      swap1\n      0x20\n      dup3\n      mul\n      dup1\n      calldatasize\n      dup4\n      calldatacopy\n      dup1\n      dup3\n      add\n      swap2\n      pop\n      pop\n      swap1\n      pop\n      pop\n      swap1\n      jump\t// out\n        /* \"#utility.yul\":7:84   */\n    tag_66:\n        /* \"#utility.yul\":44:51   */\n      0x00\n        /* \"#utility.yul\":73:78   */\n      dup2\n        /* \"#utility.yul\":62:78   */\n      swap1\n      pop\n        /* \"#utility.yul\":7:84   */\n      swap2\n      swap1\n      pop\n      jump\t// out\n        /* \"#utility.yul\":90:208   */\n    tag_67:\n        /* \"#utility.yul\":177:201   */\n      tag_89\n        /* \"#utility.yul\":195:200   */\n      dup2\n        /* \"#utility.yul\":177:201   */\n      tag_66\n      jump\t// in\n    tag_89:\n        /* \"#utility.yul\":172:175   */\n      dup3\n        /* \"#utility.yul\":165:202   */\n      mstore\n        /* \"#utility.yul\":90:208   */\n      pop\n      pop\n      jump\t// out\n        /* \"#utility.yul\":214:436   */\n    tag_14:\n        /* \"#utility.yul\":307:311   */\n      0x00\n        /* \"#utility.yul\":345:347   */\n      0x20\n        /* \"#utility.yul\":334:343   */\n      dup3\n        /* \"#utility.yul\":330:348   */\n      add\n        /* \"#utility.yul\":322:348   */\n      swap1\n      pop\n        /* \"#utility.yul\":358:429   */\n      tag_91\n        /* \"#utility.yul\":426:427   */\n      0x00\n        /* \"#utility.yul\":415:424   */\n      dup4\n        /* \"#utility.yul\":411:428   */\n      add\n        /* \"#utility.yul\":402:408   */\n      dup5\n        /* \"#utility.yul\":358:429   */\n      tag_67\n      jump\t// in\n    tag_91:\n        /* \"#utility.yul\":214:436   */\n      swap3\n      swap2\n      pop\n      pop\n      jump\t// out\n        /* \"#utility.yul\":442:546   */\n    tag_68:\n        /* \"#utility.yul\":507:513   */\n      0x00\n        /* \"#utility.yul\":535:539   */\n      0x03\n        /* \"#utility.yul\":525:539   */\n      swap1\n      pop\n        /* \"#utility.yul\":442:546   */\n      swap2\n      swap1\n      pop\n      jump\t// out\n        /* \"#utility.yul\":552:695   */\n    tag_69:\n        /* \"#utility.yul\":649:660   */\n      0x00\n        /* \"#utility.yul\":686:689   */\n      dup2\n        /* \"#utility.yul\":671:689   */\n      swap1\n      pop\n        /* \"#utility.yul\":552:695   */\n      swap3\n      swap2\n      pop\n      pop\n      jump\t// out\n        /* \"#utility.yul\":701:799   */\n    tag_70:\n        /* \"#utility.yul\":766:770   */\n      0x00\n        /* \"#utility.yul\":789:792   */\n      dup2\n        /* \"#utility.yul\":781:792   */\n      swap1\n      pop\n        /* \"#utility.yul\":701:799   */\n      swap2\n      swap1\n      pop\n      jump\t// out\n        /* \"#utility.yul\":805:913   */\n    tag_71:\n        /* \"#utility.yul\":882:906   */\n      tag_96\n        /* \"#utility.yul\":900:905   */\n      dup2\n        /* \"#utility.yul\":882:906   */\n      tag_66\n      jump\t// in\n    tag_96:\n        /* \"#utility.yul\":877:880   */\n      dup3\n        /* \"#utility.yul\":870:907   */\n      mstore\n        /* \"#utility.yul\":805:913   */\n      pop\n      pop\n      jump\t// out\n        /* \"#utility.yul\":919:1098   */\n    tag_72:\n        /* \"#utility.yul\":988:998   */\n      0x00\n        /* \"#utility.yul\":1009:1055   */\n      tag_98\n        /* \"#utility.yul\":1051:1054   */\n      dup4\n        /* \"#utility.yul\":1043:1049   */\n      dup4\n        /* \"#utility.yul\":1009:1055   */\n      tag_71\n      jump\t// in\n    tag_98:\n        /* \"#utility.yul\":1087:1091   */\n      0x20\n        /* \"#utility.yul\":1082:1085   */\n      dup4\n        /* \"#utility.yul\":1078:1092   */\n      add\n        /* \"#utility.yul\":1064:1092   */\n      swap1\n      pop\n        /* \"#utility.yul\":919:1098   */\n      swap3\n      swap2\n      pop\n      pop\n      jump\t// out\n        /* \"#utility.yul\":1104:1215   */\n    tag_73:\n        /* \"#utility.yul\":1172:1176   */\n      0x00\n        /* \"#utility.yul\":1204:1208   */\n      0x20\n        /* \"#utility.yul\":1199:1202   */\n      dup3\n        /* \"#utility.yul\":1195:1209   */\n      add\n        /* \"#utility.yul\":1187:1209   */\n      swap1\n      pop\n        /* \"#utility.yul\":1104:1215   */\n      swap2\n      swap1\n      pop\n      jump\t// out\n        /* \"#utility.yul\":1253:1947   */\n    tag_74:\n        /* \"#utility.yul\":1389:1441   */\n      tag_101\n        /* \"#utility.yul\":1435:1440   */\n      dup2\n        /* \"#utility.yul\":1389:1441   */\n      tag_68\n      jump\t// in\n    tag_101:\n        /* \"#utility.yul\":1457:1541   */\n      tag_102\n        /* \"#utility.yul\":1534:1540   */\n      dup2\n        /* \"#utility.yul\":1529:1532   */\n      dup5\n        /* \"#utility.yul\":1457:1541   */\n      tag_69\n      jump\t// in\n    tag_102:\n        /* \"#utility.yul\":1450:1541   */\n      swap3\n      pop\n        /* \"#utility.yul\":1565:1619   */\n      tag_103\n        /* \"#utility.yul\":1613:1618   */\n      dup3\n        /* \"#utility.yul\":1565:1619   */\n      tag_70\n      jump\t// in\n    tag_103:\n        /* \"#utility.yul\":1642:1649   */\n      dup1\n        /* \"#utility.yul\":1673:1674   */\n      0x00\n        /* \"#utility.yul\":1658:1940   */\n    tag_104:\n        /* \"#utility.yul\":1683:1689   */\n      dup4\n        /* \"#utility.yul\":1680:1681   */\n      dup2\n        /* \"#utility.yul\":1677:1690   */\n      lt\n        /* \"#utility.yul\":1658:1940   */\n      iszero\n      tag_106\n      jumpi\n        /* \"#utility.yul\":1759:1765   */\n      dup2\n        /* \"#utility.yul\":1753:1766   */\n      mload\n        /* \"#utility.yul\":1786:1849   */\n      tag_107\n        /* \"#utility.yul\":1845:1848   */\n      dup8\n        /* \"#utility.yul\":1830:1843   */\n      dup3\n        /* \"#utility.yul\":1786:1849   */\n      tag_72\n      jump\t// in\n    tag_107:\n        /* \"#utility.yul\":1779:1849   */\n      swap7\n      pop\n        /* \"#utility.yul\":1872:1930   */\n      tag_108\n        /* \"#utility.yul\":1923:1929   */\n      dup4\n        /* \"#utility.yul\":1872:1930   */\n      tag_73\n      jump\t// in\n    tag_108:\n        /* \"#utility.yul\":1862:1930   */\n      swap3\n      pop\n        /* \"#utility.yul\":1718:1940   */\n      pop\n        /* \"#utility.yul\":1705:1706   */\n      0x01\n        /* \"#utility.yul\":1702:1703   */\n      dup2\n        /* \"#utility.yul\":1698:1707   */\n      add\n        /* \"#utility.yul\":1693:1707   */\n      swap1\n      pop\n        /* \"#utility.yul\":1658:1940   */\n      jump(tag_104)\n    tag_106:\n        /* \"#utility.yul\":1662:1676   */\n      pop\n        /* \"#utility.yul\":1365:1947   */\n      pop\n      pop\n      pop\n        /* \"#utility.yul\":1253:1947   */\n      pop\n      pop\n      jump\t// out\n        /* \"#utility.yul\":1953:2052   */\n    tag_75:\n        /* \"#utility.yul\":2005:2011   */\n      0x00\n        /* \"#utility.yul\":2039:2044   */\n      dup2\n        /* \"#utility.yul\":2033:2045   */\n      mload\n        /* \"#utility.yul\":2023:2045   */\n      swap1\n      pop\n        /* \"#utility.yul\":1953:2052   */\n      swap2\n      swap1\n      pop\n      jump\t// out\n        /* \"#utility.yul\":2058:2227   */\n    tag_76:\n        /* \"#utility.yul\":2142:2153   */\n      0x00\n        /* \"#utility.yul\":2176:2182   */\n      dup3\n        /* \"#utility.yul\":2171:2174   */\n      dup3\n        /* \"#utility.yul\":2164:2183   */\n      mstore\n        /* \"#utility.yul\":2216:2220   */\n      0x20\n        /* \"#utility.yul\":2211:2214   */\n      dup3\n        /* \"#utility.yul\":2207:2221   */\n      add\n        /* \"#utility.yul\":2192:2221   */\n      swap1\n      pop\n        /* \"#utility.yul\":2058:2227   */\n      swap3\n      swap2\n      pop\n      pop\n      jump\t// out\n        /* \"#utility.yul\":2233:2479   */\n    tag_77:\n        /* \"#utility.yul\":2314:2315   */\n      0x00\n        /* \"#utility.yul\":2324:2437   */\n    tag_112:\n        /* \"#utility.yul\":2338:2344   */\n      dup4\n        /* \"#utility.yul\":2335:2336   */\n      dup2\n        /* \"#utility.yul\":2332:2345   */\n      lt\n        /* \"#utility.yul\":2324:2437   */\n      iszero\n      tag_114\n      jumpi\n        /* \"#utility.yul\":2423:2424   */\n      dup1\n        /* \"#utility.yul\":2418:2421   */\n      dup3\n        /* \"#utility.yul\":2414:2425   */\n      add\n        /* \"#utility.yul\":2408:2426   */\n      mload\n        /* \"#utility.yul\":2404:2405   */\n      dup2\n        /* \"#utility.yul\":2399:2402   */\n      dup5\n        /* \"#utility.yul\":2395:2406   */\n      add\n        /* \"#utility.yul\":2388:2427   */\n      mstore\n        /* \"#utility.yul\":2360:2362   */\n      0x20\n        /* \"#utility.yul\":2357:2358   */\n      dup2\n        /* \"#utility.yul\":2353:2363   */\n      add\n        /* \"#utility.yul\":2348:2363   */\n      swap1\n      pop\n        /* \"#utility.yul\":2324:2437   */\n      jump(tag_112)\n    tag_114:\n        /* \"#utility.yul\":2471:2472   */\n      0x00\n        /* \"#utility.yul\":2462:2468   */\n      dup5\n        /* \"#utility.yul\":2457:2460   */\n      dup5\n        /* \"#utility.yul\":2453:2469   */\n      add\n        /* \"#utility.yul\":2446:2473   */\n      mstore\n        /* \"#utility.yul\":2295:2479   */\n      pop\n        /* \"#utility.yul\":2233:2479   */\n      pop\n      pop\n      pop\n      jump\t// out\n        /* \"#utility.yul\":2485:2587   */\n    tag_78:\n        /* \"#utility.yul\":2526:2532   */\n      0x00\n        /* \"#utility.yul\":2577:2579   */\n      0x1f\n        /* \"#utility.yul\":2573:2580   */\n      not\n        /* \"#utility.yul\":2568:2570   */\n      0x1f\n        /* \"#utility.yul\":2561:2566   */\n      dup4\n        /* \"#utility.yul\":2557:2571   */\n      add\n        /* \"#utility.yul\":2553:2581   */\n      and\n        /* \"#utility.yul\":2543:2581   */\n      swap1\n      pop\n        /* \"#utility.yul\":2485:2587   */\n      swap2\n      swap1\n      pop\n      jump\t// out\n        /* \"#utility.yul\":2593:2970   */\n    tag_79:\n        /* \"#utility.yul\":2681:2684   */\n      0x00\n        /* \"#utility.yul\":2709:2748   */\n      tag_117\n        /* \"#utility.yul\":2742:2747   */\n      dup3\n        /* \"#utility.yul\":2709:2748   */\n      tag_75\n      jump\t// in\n    tag_117:\n        /* \"#utility.yul\":2764:2835   */\n      tag_118\n        /* \"#utility.yul\":2828:2834   */\n      dup2\n        /* \"#utility.yul\":2823:2826   */\n      dup6\n        /* \"#utility.yul\":2764:2835   */\n      tag_76\n      jump\t// in\n    tag_118:\n        /* \"#utility.yul\":2757:2835   */\n      swap4\n      pop\n        /* \"#utility.yul\":2844:2909   */\n      tag_119\n        /* \"#utility.yul\":2902:2908   */\n      dup2\n        /* \"#utility.yul\":2897:2900   */\n      dup6\n        /* \"#utility.yul\":2890:2894   */\n      0x20\n        /* \"#utility.yul\":2883:2888   */\n      dup7\n        /* \"#utility.yul\":2879:2895   */\n      add\n        /* \"#utility.yul\":2844:2909   */\n      tag_77\n      jump\t// in\n    tag_119:\n        /* \"#utility.yul\":2934:2963   */\n      tag_120\n        /* \"#utility.yul\":2956:2962   */\n      dup2\n        /* \"#utility.yul\":2934:2963   */\n      tag_78\n      jump\t// in\n    tag_120:\n        /* \"#utility.yul\":2929:2932   */\n      dup5\n        /* \"#utility.yul\":2925:2964   */\n      add\n        /* \"#utility.yul\":2918:2964   */\n      swap2\n      pop\n        /* \"#utility.yul\":2685:2970   */\n      pop\n        /* \"#utility.yul\":2593:2970   */\n      swap3\n      swap2\n      pop\n      pop\n      jump\t// out\n        /* \"#utility.yul\":2976:3603   */\n    tag_22:\n        /* \"#utility.yul\":3191:3195   */\n      0x00\n        /* \"#utility.yul\":3229:3232   */\n      0xa0\n        /* \"#utility.yul\":3218:3227   */\n      dup3\n        /* \"#utility.yul\":3214:3233   */\n      add\n        /* \"#utility.yul\":3206:3233   */\n      swap1\n      pop\n        /* \"#utility.yul\":3243:3314   */\n      tag_122\n        /* \"#utility.yul\":3311:3312   */\n      0x00\n        /* \"#utility.yul\":3300:3309   */\n      dup4\n        /* \"#utility.yul\":3296:3313   */\n      add\n        /* \"#utility.yul\":3287:3293   */\n      dup7\n        /* \"#utility.yul\":3243:3314   */\n      tag_67\n      jump\t// in\n    tag_122:\n        /* \"#utility.yul\":3324:3442   */\n      tag_123\n        /* \"#utility.yul\":3438:3440   */\n      0x20\n        /* \"#utility.yul\":3427:3436   */\n      dup4\n        /* \"#utility.yul\":3423:3441   */\n      add\n        /* \"#utility.yul\":3414:3420   */\n      dup6\n        /* \"#utility.yul\":3324:3442   */\n      tag_74\n      jump\t// in\n    tag_123:\n        /* \"#utility.yul\":3490:3499   */\n      dup2\n        /* \"#utility.yul\":3484:3488   */\n      dup2\n        /* \"#utility.yul\":3480:3500   */\n      sub\n        /* \"#utility.yul\":3474:3477   */\n      0x80\n        /* \"#utility.yul\":3463:3472   */\n      dup4\n        /* \"#utility.yul\":3459:3478   */\n      add\n        /* \"#utility.yul\":3452:3501   */\n      mstore\n        /* \"#utility.yul\":3518:3596   */\n      tag_124\n        /* \"#utility.yul\":3591:3595   */\n      dup2\n        /* \"#utility.yul\":3582:3588   */\n      dup5\n        /* \"#utility.yul\":3518:3596   */\n      tag_79\n      jump\t// in\n    tag_124:\n        /* \"#utility.yul\":3510:3596   */\n      swap1\n      pop\n        /* \"#utility.yul\":2976:3603   */\n      swap5\n      swap4\n      pop\n      pop\n      pop\n      pop\n      jump\t// out\n        /* \"#utility.yul\":3690:3807   */\n    tag_81:\n        /* \"#utility.yul\":3799:3800   */\n      0x00\n        /* \"#utility.yul\":3796:3797   */\n      dup1\n        /* \"#utility.yul\":3789:3801   */\n      revert\n        /* \"#utility.yul\":3936:4058   */\n    tag_83:\n        /* \"#utility.yul\":4009:4033   */\n      tag_129\n        /* \"#utility.yul\":4027:4032   */\n      dup2\n        /* \"#utility.yul\":4009:4033   */\n      tag_66\n      jump\t// in\n    tag_129:\n        /* \"#utility.yul\":4002:4007   */\n      dup2\n        /* \"#utility.yul\":3999:4034   */\n      eq\n        /* \"#utility.yul\":3989:4052   */\n      tag_130\n      jumpi\n        /* \"#utility.yul\":4048:4049   */\n      0x00\n        /* \"#utility.yul\":4045:4046   */\n      dup1\n        /* \"#utility.yul\":4038:4050   */\n      revert\n        /* \"#utility.yul\":3989:4052   */\n    tag_130:\n        /* \"#utility.yul\":3936:4058   */\n      pop\n      jump\t// out\n        /* \"#utility.yul\":4064:4203   */\n    tag_84:\n        /* \"#utility.yul\":4110:4115   */\n      0x00\n        /* \"#utility.yul\":4148:4154   */\n      dup2\n        /* \"#utility.yul\":4135:4155   */\n      calldataload\n        /* \"#utility.yul\":4126:4155   */\n      swap1\n      pop\n        /* \"#utility.yul\":4164:4197   */\n      tag_132\n        /* \"#utility.yul\":4191:4196   */\n      dup2\n        /* \"#utility.yul\":4164:4197   */\n      tag_83\n      jump\t// in\n    tag_132:\n        /* \"#utility.yul\":4064:4203   */\n      swap3\n      swap2\n      pop\n      pop\n      jump\t// out\n        /* \"#utility.yul\":4209:4538   */\n    tag_25:\n        /* \"#utility.yul\":4268:4274   */\n      0x00\n        /* \"#utility.yul\":4317:4319   */\n      0x20\n        /* \"#utility.yul\":4305:4314   */\n      dup3\n        /* \"#utility.yul\":4296:4303   */\n      dup5\n        /* \"#utility.yul\":4292:4315   */\n      sub\n        /* \"#utility.yul\":4288:4320   */\n      slt\n        /* \"#utility.yul\":4285:4404   */\n      iszero\n      tag_134\n      jumpi\n        /* \"#utility.yul\":4323:4402   */\n      tag_135\n      tag_81\n      jump\t// in\n    tag_135:\n        /* \"#utility.yul\":4285:4404   */\n    tag_134:\n        /* \"#utility.yul\":4443:4444   */\n      0x00\n        /* \"#utility.yul\":4468:4521   */\n      tag_136\n        /* \"#utility.yul\":4513:4520   */\n      dup5\n        /* \"#utility.yul\":4504:4510   */\n      dup3\n        /* \"#utility.yul\":4493:4502   */\n      dup6\n        /* \"#utility.yul\":4489:4511   */\n      add\n        /* \"#utility.yul\":4468:4521   */\n      tag_84\n      jump\t// in\n    tag_136:\n        /* \"#utility.yul\":4458:4521   */\n      swap2\n      pop\n        /* \"#utility.yul\":4414:4531   */\n      pop\n        /* \"#utility.yul\":4209:4538   */\n      swap3\n      swap2\n      pop\n      pop\n      jump\t// out\n        /* \"#utility.yul\":4544:4724   */\n    tag_85:\n        /* \"#utility.yul\":4592:4669   */\n      0x4e487b7100000000000000000000000000000000000000000000000000000000\n        /* \"#utility.yul\":4589:4590   */\n      0x00\n        /* \"#utility.yul\":4582:4670   */\n      mstore\n        /* \"#utility.yul\":4689:4693   */\n      0x11\n        /* \"#utility.yul\":4686:4687   */\n      0x04\n        /* \"#utility.yul\":4679:4694   */\n      mstore\n        /* \"#utility.yul\":4713:4717   */\n      0x24\n        /* \"#utility.yul\":4710:4711   */\n      0x00\n        /* \"#utility.yul\":4703:4718   */\n      revert\n        /* \"#utility.yul\":4730:4924   */\n    tag_61:\n        /* \"#utility.yul\":4770:4774   */\n      0x00\n        /* \"#utility.yul\":4790:4810   */\n      tag_139\n        /* \"#utility.yul\":4808:4809   */\n      dup3\n        /* \"#utility.yul\":4790:4810   */\n      tag_66\n      jump\t// in\n    tag_139:\n        /* \"#utility.yul\":4785:4810   */\n      swap2\n      pop\n        /* \"#utility.yul\":4824:4844   */\n      tag_140\n        /* \"#utility.yul\":4842:4843   */\n      dup4\n        /* \"#utility.yul\":4824:4844   */\n      tag_66\n      jump\t// in\n    tag_140:\n        /* \"#utility.yul\":4819:4844   */\n      swap3\n      pop\n        /* \"#utility.yul\":4868:4869   */\n      dup3\n        /* \"#utility.yul\":4865:4866   */\n      dup3\n        /* \"#utility.yul\":4861:4870   */\n      sub\n        /* \"#utility.yul\":4853:4870   */\n      swap1\n      pop\n        /* \"#utility.yul\":4892:4893   */\n      dup2\n        /* \"#utility.yul\":4886:4890   */\n      dup2\n        /* \"#utility.yul\":4883:4894   */\n      gt\n        /* \"#utility.yul\":4880:4917   */\n      iszero\n      tag_141\n      jumpi\n        /* \"#utility.yul\":4897:4915   */\n      tag_142\n      tag_85\n      jump\t// in\n    tag_142:\n        /* \"#utility.yul\":4880:4917   */\n    tag_141:\n        /* \"#utility.yul\":4730:4924   */\n      swap3\n      swap2\n      pop\n      pop\n      jump\t// out\n        /* \"#utility.yul\":4930:5121   */\n    tag_64:\n        /* \"#utility.yul\":4970:4973   */\n      0x00\n        /* \"#utility.yul\":4989:5009   */\n      tag_144\n        /* \"#utility.yul\":5007:5008   */\n      dup3\n        /* \"#utility.yul\":4989:5009   */\n      tag_66\n      jump\t// in\n    tag_144:\n        /* \"#utility.yul\":4984:5009   */\n      swap2\n      pop\n        /* \"#utility.yul\":5023:5043   */\n      tag_145\n        /* \"#utility.yul\":5041:5042   */\n      dup4\n        /* \"#utility.yul\":5023:5043   */\n      tag_66\n      jump\t// in\n    tag_145:\n        /* \"#utility.yul\":5018:5043   */\n      swap3\n      pop\n        /* \"#utility.yul\":5066:5067   */\n      dup3\n        /* \"#utility.yul\":5063:5064   */\n      dup3\n        /* \"#utility.yul\":5059:5068   */\n      add\n        /* \"#utility.yul\":5052:5068   */\n      swap1\n      pop\n        /* \"#utility.yul\":5087:5090   */\n      dup1\n        /* \"#utility.yul\":5084:5085   */\n      dup3\n        /* \"#utility.yul\":5081:5091   */\n      gt\n        /* \"#utility.yul\":5078:5114   */\n      iszero\n      tag_146\n      jumpi\n        /* \"#utility.yul\":5094:5112   */\n      tag_147\n      tag_85\n      jump\t// in\n    tag_147:\n        /* \"#utility.yul\":5078:5114   */\n    tag_146:\n        /* \"#utility.yul\":4930:5121   */\n      swap3\n      swap2\n      pop\n      pop\n      jump\t// out\n\n    auxdata: 0xa2646970667358221220eeb658f650eda700ad512080f2aa04631120733b88155552d6c32afde7f7dbc264736f6c63430008120033\n}\n",
				"bytecode": {
					"linkReferences": {},
					"object": "60806040526000805534801561001457600080fd5b5061059d806100246000396000f3fe6080604052600436106100705760003560e01c80638d79e4fa1161004e5780638d79e4fa146100e4578063e13a771614610114578063f8a8fd6d1461013f578063f9bd55cc1461015657610070565b806306a5312b146100755780635e7a6a82146100a05780636bfba1d4146100b7575b600080fd5b34801561008157600080fd5b5061008a610181565b60405161009791906102de565b60405180910390f35b3480156100ac57600080fd5b506100b5610190565b005b3480156100c357600080fd5b506100cc61019a565b6040516100db93929190610434565b60405180910390f35b6100fe60048036038101906100f991906104a3565b610207565b60405161010b91906102de565b60405180910390f35b34801561012057600080fd5b5061012961022f565b60405161013691906102de565b60405180910390f35b34801561014b57600080fd5b50610154610238565b005b34801561016257600080fd5b5061016b61025d565b60405161017891906102de565b60405180910390f35b600061018b610263565b905090565b61019861026c565b565b60006101a46102a3565b606060026040518060600160405280600281526020016002815260200160028152506040518060400160405280600281526020017f7777000000000000000000000000000000000000000000000000000000000000815250925092509250909192565b600061021d61021860005484610283565b610299565b610228600047610283565b9050919050565b60006001905090565b60006102426102a3565b606061024c61019a565b809350819450829550505050505050565b60005481565b60008054905090565b600160005461027b91906104ff565b600081905550565b600081836102919190610533565b905092915050565b8060008190555050565b6040518060600160405280600390602082028036833780820191505090505090565b6000819050919050565b6102d8816102c5565b82525050565b60006020820190506102f360008301846102cf565b92915050565b600060039050919050565b600081905092915050565b6000819050919050565b610322816102c5565b82525050565b60006103348383610319565b60208301905092915050565b6000602082019050919050565b610356816102f9565b6103608184610304565b925061036b8261030f565b8060005b8381101561039c5781516103838782610328565b965061038e83610340565b92505060018101905061036f565b505050505050565b600081519050919050565b600082825260208201905092915050565b60005b838110156103de5780820151818401526020810190506103c3565b60008484015250505050565b6000601f19601f8301169050919050565b6000610406826103a4565b61041081856103af565b93506104208185602086016103c0565b610429816103ea565b840191505092915050565b600060a08201905061044960008301866102cf565b610456602083018561034d565b818103608083015261046881846103fb565b9050949350505050565b600080fd5b610480816102c5565b811461048b57600080fd5b50565b60008135905061049d81610477565b92915050565b6000602082840312156104b9576104b8610472565b5b60006104c78482850161048e565b91505092915050565b7f4e487b7100000000000000000000000000000000000000000000000000000000600052601160045260246000fd5b600061050a826102c5565b9150610515836102c5565b925082820390508181111561052d5761052c6104d0565b5b92915050565b600061053e826102c5565b9150610549836102c5565b9250828201905080821115610561576105606104d0565b5b9291505056fea2646970667358221220eeb658f650eda700ad512080f2aa04631120733b88155552d6c32afde7f7dbc264736f6c63430008120033",
					"opcodes": "PUSH1 0x80 PUSH1 0x40 MSTORE PUSH1 0x0 DUP1 SSTORE CALLVALUE DUP1 ISZERO PUSH2 0x14 JUMPI PUSH1 0x0 DUP1 REVERT JUMPDEST POP PUSH2 0x59D DUP1 PUSH2 0x24 PUSH1 0x0 CODECOPY PUSH1 0x0 RETURN INVALID PUSH1 0x80 PUSH1 0x40 MSTORE PUSH1 0x4 CALLDATASIZE LT PUSH2 0x70 JUMPI PUSH1 0x0 CALLDATALOAD PUSH1 0xE0 SHR DUP1 PUSH4 0x8D79E4FA GT PUSH2 0x4E JUMPI DUP1 PUSH4 0x8D79E4FA EQ PUSH2 0xE4 JUMPI DUP1 PUSH4 0xE13A7716 EQ PUSH2 0x114 JUMPI DUP1 PUSH4 0xF8A8FD6D EQ PUSH2 0x13F JUMPI DUP1 PUSH4 0xF9BD55CC EQ PUSH2 0x156 JUMPI PUSH2 0x70 JUMP JUMPDEST DUP1 PUSH4 0x6A5312B EQ PUSH2 0x75 JUMPI DUP1 PUSH4 0x5E7A6A82 EQ PUSH2 0xA0 JUMPI DUP1 PUSH4 0x6BFBA1D4 EQ PUSH2 0xB7 JUMPI JUMPDEST PUSH1 0x0 DUP1 REVERT JUMPDEST CALLVALUE DUP1 ISZERO PUSH2 0x81 JUMPI PUSH1 0x0 DUP1 REVERT JUMPDEST POP PUSH2 0x8A PUSH2 0x181 JUMP JUMPDEST PUSH1 0x40 MLOAD PUSH2 0x97 SWAP2 SWAP1 PUSH2 0x2DE JUMP JUMPDEST PUSH1 0x40 MLOAD DUP1 SWAP2 SUB SWAP1 RETURN JUMPDEST CALLVALUE DUP1 ISZERO PUSH2 0xAC JUMPI PUSH1 0x0 DUP1 REVERT JUMPDEST POP PUSH2 0xB5 PUSH2 0x190 JUMP JUMPDEST STOP JUMPDEST CALLVALUE DUP1 ISZERO PUSH2 0xC3 JUMPI PUSH1 0x0 DUP1 REVERT JUMPDEST POP PUSH2 0xCC PUSH2 0x19A JUMP JUMPDEST PUSH1 0x40 MLOAD PUSH2 0xDB SWAP4 SWAP3 SWAP2 SWAP1 PUSH2 0x434 JUMP JUMPDEST PUSH1 0x40 MLOAD DUP1 SWAP2 SUB SWAP1 RETURN JUMPDEST PUSH2 0xFE PUSH1 0x4 DUP1 CALLDATASIZE SUB DUP2 ADD SWAP1 PUSH2 0xF9 SWAP2 SWAP1 PUSH2 0x4A3 JUMP JUMPDEST PUSH2 0x207 JUMP JUMPDEST PUSH1 0x40 MLOAD PUSH2 0x10B SWAP2 SWAP1 PUSH2 0x2DE JUMP JUMPDEST PUSH1 0x40 MLOAD DUP1 SWAP2 SUB SWAP1 RETURN JUMPDEST CALLVALUE DUP1 ISZERO PUSH2 0x120 JUMPI PUSH1 0x0 DUP1 REVERT JUMPDEST POP PUSH2 0x129 PUSH2 0x22F JUMP JUMPDEST PUSH1 0x40 MLOAD PUSH2 0x136 SWAP2 SWAP1 PUSH2 0x2DE JUMP JUMPDEST PUSH1 0x40 MLOAD DUP1 SWAP2 SUB SWAP1 RETURN JUMPDEST CALLVALUE DUP1 ISZERO PUSH2 0x14B JUMPI PUSH1 0x0 DUP1 REVERT JUMPDEST POP PUSH2 0x154 PUSH2 0x238 JUMP JUMPDEST STOP JUMPDEST CALLVALUE DUP1 ISZERO PUSH2 0x162 JUMPI PUSH1 0x0 DUP1 REVERT JUMPDEST POP PUSH2 0x16B PUSH2 0x25D JUMP JUMPDEST PUSH1 0x40 MLOAD PUSH2 0x178 SWAP2 SWAP1 PUSH2 0x2DE JUMP JUMPDEST PUSH1 0x40 MLOAD DUP1 SWAP2 SUB SWAP1 RETURN JUMPDEST PUSH1 0x0 PUSH2 0x18B PUSH2 0x263 JUMP JUMPDEST SWAP1 POP SWAP1 JUMP JUMPDEST PUSH2 0x198 PUSH2 0x26C JUMP JUMPDEST JUMP JUMPDEST PUSH1 0x0 PUSH2 0x1A4 PUSH2 0x2A3 JUMP JUMPDEST PUSH1 0x60 PUSH1 0x2 PUSH1 0x40 MLOAD DUP1 PUSH1 0x60 ADD PUSH1 0x40 MSTORE DUP1 PUSH1 0x2 DUP2 MSTORE PUSH1 0x20 ADD PUSH1 0x2 DUP2 MSTORE PUSH1 0x20 ADD PUSH1 0x2 DUP2 MSTORE POP PUSH1 0x40 MLOAD DUP1 PUSH1 0x40 ADD PUSH1 0x40 MSTORE DUP1 PUSH1 0x2 DUP2 MSTORE PUSH1 0x20 ADD PUSH32 0x7777000000000000000000000000000000000000000000000000000000000000 DUP2 MSTORE POP SWAP3 POP SWAP3 POP SWAP3 POP SWAP1 SWAP2 SWAP3 JUMP JUMPDEST PUSH1 0x0 PUSH2 0x21D PUSH2 0x218 PUSH1 0x0 SLOAD DUP5 PUSH2 0x283 JUMP JUMPDEST PUSH2 0x299 JUMP JUMPDEST PUSH2 0x228 PUSH1 0x0 SELFBALANCE PUSH2 0x283 JUMP JUMPDEST SWAP1 POP SWAP2 SWAP1 POP JUMP JUMPDEST PUSH1 0x0 PUSH1 0x1 SWAP1 POP SWAP1 JUMP JUMPDEST PUSH1 0x0 PUSH2 0x242 PUSH2 0x2A3 JUMP JUMPDEST PUSH1 0x60 PUSH2 0x24C PUSH2 0x19A JUMP JUMPDEST DUP1 SWAP4 POP DUP2 SWAP5 POP DUP3 SWAP6 POP POP POP POP POP POP POP JUMP JUMPDEST PUSH1 0x0 SLOAD DUP2 JUMP JUMPDEST PUSH1 0x0 DUP1 SLOAD SWAP1 POP SWAP1 JUMP JUMPDEST PUSH1 0x1 PUSH1 0x0 SLOAD PUSH2 0x27B SWAP2 SWAP1 PUSH2 0x4FF JUMP JUMPDEST PUSH1 0x0 DUP2 SWAP1 SSTORE POP JUMP JUMPDEST PUSH1 0x0 DUP2 DUP4 PUSH2 0x291 SWAP2 SWAP1 PUSH2 0x533 JUMP JUMPDEST SWAP1 POP SWAP3 SWAP2 POP POP JUMP JUMPDEST DUP1 PUSH1 0x0 DUP2 SWAP1 SSTORE POP POP JUMP JUMPDEST PUSH1 0x40 MLOAD DUP1 PUSH1 0x60 ADD PUSH1 0x40 MSTORE DUP1 PUSH1 0x3 SWAP1 PUSH1 0x20 DUP3 MUL DUP1 CALLDATASIZE DUP4 CALLDATACOPY DUP1 DUP3 ADD SWAP2 POP POP SWAP1 POP POP SWAP1 JUMP JUMPDEST PUSH1 0x0 DUP2 SWAP1 POP SWAP2 SWAP1 POP JUMP JUMPDEST PUSH2 0x2D8 DUP2 PUSH2 0x2C5 JUMP JUMPDEST DUP3 MSTORE POP POP JUMP JUMPDEST PUSH1 0x0 PUSH1 0x20 DUP3 ADD SWAP1 POP PUSH2 0x2F3 PUSH1 0x0 DUP4 ADD DUP5 PUSH2 0x2CF JUMP JUMPDEST SWAP3 SWAP2 POP POP JUMP JUMPDEST PUSH1 0x0 PUSH1 0x3 SWAP1 POP SWAP2 SWAP1 POP JUMP JUMPDEST PUSH1 0x0 DUP2 SWAP1 POP SWAP3 SWAP2 POP POP JUMP JUMPDEST PUSH1 0x0 DUP2 SWAP1 POP SWAP2 SWAP1 POP JUMP JUMPDEST PUSH2 0x322 DUP2 PUSH2 0x2C5 JUMP JUMPDEST DUP3 MSTORE POP POP JUMP JUMPDEST PUSH1 0x0 PUSH2 0x334 DUP4 DUP4 PUSH2 0x319 JUMP JUMPDEST PUSH1 0x20 DUP4 ADD SWAP1 POP SWAP3 SWAP2 POP POP JUMP JUMPDEST PUSH1 0x0 PUSH1 0x20 DUP3 ADD SWAP1 POP SWAP2 SWAP1 POP JUMP JUMPDEST PUSH2 0x356 DUP2 PUSH2 0x2F9 JUMP JUMPDEST PUSH2 0x360 DUP2 DUP5 PUSH2 0x304 JUMP JUMPDEST SWAP3 POP PUSH2 0x36B DUP3 PUSH2 0x30F JUMP JUMPDEST DUP1 PUSH1 0x0 JUMPDEST DUP4 DUP2 LT ISZERO PUSH2 0x39C JUMPI DUP2 MLOAD PUSH2 0x383 DUP8 DUP3 PUSH2 0x328 JUMP JUMPDEST SWAP7 POP PUSH2 0x38E DUP4 PUSH2 0x340 JUMP JUMPDEST SWAP3 POP POP PUSH1 0x1 DUP2 ADD SWAP1 POP PUSH2 0x36F JUMP JUMPDEST POP POP POP POP POP POP JUMP JUMPDEST PUSH1 0x0 DUP2 MLOAD SWAP1 POP SWAP2 SWAP1 POP JUMP JUMPDEST PUSH1 0x0 DUP3 DUP3 MSTORE PUSH1 0x20 DUP3 ADD SWAP1 POP SWAP3 SWAP2 POP POP JUMP JUMPDEST PUSH1 0x0 JUMPDEST DUP4 DUP2 LT ISZERO PUSH2 0x3DE JUMPI DUP1 DUP3 ADD MLOAD DUP2 DUP5 ADD MSTORE PUSH1 0x20 DUP2 ADD SWAP1 POP PUSH2 0x3C3 JUMP JUMPDEST PUSH1 0x0 DUP5 DUP5 ADD MSTORE POP POP POP POP JUMP JUMPDEST PUSH1 0x0 PUSH1 0x1F NOT PUSH1 0x1F DUP4 ADD AND SWAP1 POP SWAP2 SWAP1 POP JUMP JUMPDEST PUSH1 0x0 PUSH2 0x406 DUP3 PUSH2 0x3A4 JUMP JUMPDEST PUSH2 0x410 DUP2 DUP6 PUSH2 0x3AF JUMP JUMPDEST SWAP4 POP PUSH2 0x420 DUP2 DUP6 PUSH1 0x20 DUP7 ADD PUSH2 0x3C0 JUMP JUMPDEST PUSH2 0x429 DUP2 PUSH2 0x3EA JUMP JUMPDEST DUP5 ADD SWAP2 POP POP SWAP3 SWAP2 POP POP JUMP JUMPDEST PUSH1 0x0 PUSH1 0xA0 DUP3 ADD SWAP1 POP PUSH2 0x449 PUSH1 0x0 DUP4 ADD DUP7 PUSH2 0x2CF JUMP JUMPDEST PUSH2 0x456 PUSH1 0x20 DUP4 ADD DUP6 PUSH2 0x34D JUMP JUMPDEST DUP2 DUP2 SUB PUSH1 0x80 DUP4 ADD MSTORE PUSH2 0x468 DUP2 DUP5 PUSH2 0x3FB JUMP JUMPDEST SWAP1 POP SWAP5 SWAP4 POP POP POP POP JUMP JUMPDEST PUSH1 0x0 DUP1 REVERT JUMPDEST PUSH2 0x480 DUP2 PUSH2 0x2C5 JUMP JUMPDEST DUP2 EQ PUSH2 0x48B JUMPI PUSH1 0x0 DUP1 REVERT JUMPDEST POP JUMP JUMPDEST PUSH1 0x0 DUP2 CALLDATALOAD SWAP1 POP PUSH2 0x49D DUP2 PUSH2 0x477 JUMP JUMPDEST SWAP3 SWAP2 POP POP JUMP JUMPDEST PUSH1 0x0 PUSH1 0x20 DUP3 DUP5 SUB SLT ISZERO PUSH2 0x4B9 JUMPI PUSH2 0x4B8 PUSH2 0x472 JUMP JUMPDEST JUMPDEST PUSH1 0x0 PUSH2 0x4C7 DUP5 DUP3 DUP6 ADD PUSH2 0x48E JUMP JUMPDEST SWAP2 POP POP SWAP3 SWAP2 POP POP JUMP JUMPDEST PUSH32 0x4E487B7100000000000000000000000000000000000000000000000000000000 PUSH1 0x0 MSTORE PUSH1 0x11 PUSH1 0x4 MSTORE PUSH1 0x24 PUSH1 0x0 REVERT JUMPDEST PUSH1 0x0 PUSH2 0x50A DUP3 PUSH2 0x2C5 JUMP JUMPDEST SWAP2 POP PUSH2 0x515 DUP4 PUSH2 0x2C5 JUMP JUMPDEST SWAP3 POP DUP3 DUP3 SUB SWAP1 POP DUP2 DUP2 GT ISZERO PUSH2 0x52D JUMPI PUSH2 0x52C PUSH2 0x4D0 JUMP JUMPDEST JUMPDEST SWAP3 SWAP2 POP POP JUMP JUMPDEST PUSH1 0x0 PUSH2 0x53E DUP3 PUSH2 0x2C5 JUMP JUMPDEST SWAP2 POP PUSH2 0x549 DUP4 PUSH2 0x2C5 JUMP JUMPDEST SWAP3 POP DUP3 DUP3 ADD SWAP1 POP DUP1 DUP3 GT ISZERO PUSH2 0x561 JUMPI PUSH2 0x560 PUSH2 0x4D0 JUMP JUMPDEST JUMPDEST SWAP3 SWAP2 POP POP JUMP INVALID LOG2 PUSH5 0x6970667358 0x22 SLT KECCAK256 0xEE 0xB6 PC 0xF6 POP 0xED 0xA7 STOP 0xAD MLOAD KECCAK256 DUP1 CALLCODE 0xAA DIV PUSH4 0x1120733B DUP9 ISZERO SSTORE MSTORE 0xD6 0xC3 0x2A REVERT 0xE7 0xF7 0xDB 0xC2 PUSH5 0x736F6C6343 STOP ADDMOD SLT STOP CALLER "
				},
				"gasEstimates": {
					"creation": {
						"codeDepositCost": "287400",
						"executionCost": "5330",
						"totalCost": "292730"
					},
					"external": {
						"BuyNumber(uint256)": "infinite",
						"CostNumber()": "infinite",
						"GetNumber()": "2473",
						"_number()": "2495",
						"test()": "infinite",
						"testMultipleReturn()": "infinite",
						"testReturn()": "359"
					},
					"internal": {
						"addNumber()": "infinite",
						"costNumber()": "infinite",
						"getNumber()": "2123",
						"setNumber(uint256)": "22125",
						"utilsAddNumber(uint256,uint256)": "infinite"
					}
				},
				"methodIdentifiers": {
					"BuyNumber(uint256)": "8d79e4fa",
					"CostNumber()": "5e7a6a82",
					"GetNumber()": "06a5312b",
					"_number()": "f9bd55cc",
					"test()": "f8a8fd6d",
					"testMultipleReturn()": "6bfba1d4",
					"testReturn()": "e13a7716"
				}
			},
			"storageLayout": {
				"storage": [
					{
						"astId": 4,
						"contract": "function.sol:FunctionContract",
						"label": "_number",
						"offset": 0,
						"slot": "0",
						"type": "t_uint256"
					}
				],
				"types": {
					"t_uint256": {
						"encoding": "inplace",
						"label": "uint256",
						"numberOfBytes": "32"
					}
				}
			},
			"userdoc": {
				"kind": "user",
				"methods": {},
				"version": 1
			}
		}
	}
}